:100000000C94240018950000189500001895000025
:10001000189500001895000018950000189500002C
:10002000189500001895000018950000189500001C
:10003000189500001895000018950000189500000C
:1000400018950000189500008FE58DBFC8E3E0E229
:100050004E2E84E08EBFD4E0F4E05F2EA89584B7E6
:10006000082E877F84BF88E1992781BD91BDEEEF7F
:10007000F3E0A0E6B0E088278D933197E9F7662496
:100080008DEE94E2A0E7B0E08D939C93EFEAF0E070
:10009000A2E6B0E091E00E948E0880E080938400A8
:1000A00080EA90E0A2E7B0E08D939C9381E080939A
:1000B0006300009163000F3018F011F00C947D0084
:1000C000A2E7B0E0ED91FC91ABE6B0E091E00E94D8
:1000D0008E080091840040916B000427A4E8B0E0F2
:1000E0000C93A2E7B0E00E94CC07A3E6B0E08C91AD
:1000F0008F5F8C9310F40C94590040916200009132
:100100008400041711F40C948D00EFEAF0E0A4E8E9
:10011000B0E091E07BE70E947D08009184000D3201
:1001200011F00C9497000C949D000C9499000C9481
:1001300040058AE090E00E94330880EA80936600E0
:1001400089E690E0A2E7B0E08D939C9381E08093F4
:10015000630000916300083018F011F00C94CB009C
:10016000A2E7B0E0ED91FC91A3E6B0E0AD90BB2436
:10017000A3E7B0E0AA0DBB1D91E00E948E08A2E7A4
:10018000B0E00E94CC07A3E6B0E08C918F5F8C9327
:1001900010F40C94A90081E790E0A2E7B0E08D9301
:1001A0009C9381E08093630000916300083018F015
:1001B00011F00C94F600A2E7B0E0ED91FC91A3E6FB
:1001C000B0E0AD90BB24ABE7B0E0AA0DBB1D91E061
:1001D0000E948E08A2E7B0E00E94CC07A3E6B0E040
:1001E0008C918F5F8C9310F40C94D400A0E7B0E056
:1001F0008D919C91A5E8B0E08D939C930E9442085C
:100200000E94480981E08A9380E08A9388E08A937B
:10021000A0E6B0E081E08A93E7E386E0E8940E94FC
:10022000ED08A0E7B0E08D919C91A5E8B0E08D933A
:100230009C930E9442080E94480981E08A9381E0D1
:100240008A9388E08A93A1E6B0E081E08A93E7E3AD
:1002500086E0E8940E94ED08A0E7B0E08D919C91C3
:10026000A5E8B0E08D939C930E9442080E94480943
:1002700081E08A9380E08A9388E08A9381E08A9380
:10028000A6E6B0E0E7E386E0E8940E9495080091D6
:1002900060000F3511F00C94AB0182E0809369008F
:1002A00080E080936A0000916100003011F00C94AE
:1002B0008B010E94530700916700003011F00C94ED
:1002C0006C0189E790E0A2E7B0E08D939C9382E017
:1002D00080936B000C948901013011F00C947B0128
:1002E00082E890E0A2E7B0E08D939C9382E0809357
:1002F0006B000C948901023011F00C94890181E0AB
:1003000080936B000E94FE068AE780936B000E9438
:10031000FE060C94A901023011F00C949B0181E0BF
:1003200080936B000E94FE068AE780936B000E9418
:10033000FE060C94A901033011F00C94A90181E090
:1003400080936B000E94FE068AE480936B000E94FB
:10035000FE060C943305023011F00C94D80182E0B3
:100360008093690080E080936A0000916100003012
:1003700011F00C94C90181E08093660081E090E067
:10038000A2E7B0E08D939C9382E080936B000C9485
:10039000D601013011F00C94D60189E090E0A2E77B
:1003A000B0E08D939C9382E080936B000C943305B6
:1003B000073511F00C94110282E08093690080E00F
:1003C00080936A0000916100003011F00C94F301F9
:1003D00081E190E0A2E7B0E08D939C9382E080936E
:1003E0006B000C940F02013011F00C94020289E1B1
:1003F00090E0A2E7B0E08D939C9382E080936B0045
:100400000C940F02023011F00C940F0281E290E084
:10041000A2E7B0E08D939C9382E080936B000C94F4
:100420003305063011F00C944B0386E0809369008D
:1004300082E080936A000E94530781E0809363000A
:10044000009163000B3018F011F00C94340281E03D
:1004500080936B000E94FE06A3E6B0E08C918F5F54
:100460008C9310F40C94200240917400009167006A
:10047000041781E009F080E08F93409175000091AE
:100480006800041781E009F080E09F9189238823A8
:1004900011F40C94560289E290E0A2E7B0E08D934B
:1004A0009C9382E080936B000C944903409176000A
:1004B00000916700041781E009F080E08F9340917C
:1004C000770000916800041781E009F080E09F91B7
:1004D0008923882311F40C94780281E390E0A2E749
:1004E000B0E08D939C9382E080936B000C94490361
:1004F0004091780000916700041781E009F080E0E6
:100500008F934091790000916800041781E009F011
:1005100080E09F918923882311F40C949A0289E347
:1005200090E0A2E7B0E08D939C9382E080936B0013
:100530000C94490340917A0000916700041781E010
:1005400009F080E08F9340917B00009168000417D0
:1005500081E009F080E09F918923882311F40C94B5
:10056000BC0281E490E0A2E7B0E08D939C9382E02E
:1005700080936B000C94490340917C0000916700CC
:10058000041781E009F080E08F9340917D00009195
:100590006800041781E009F080E09F918923882397
:1005A00011F40C94DE0289E490E0A2E7B0E08D93B0
:1005B0009C9382E080936B000C94490340917E00F1
:1005C00000916700041781E009F080E08F9340916B
:1005D0007F0000916800041781E009F080E09F919E
:1005E0008923882311F40C94000381E590E0A2E7AD
:1005F000B0E08D939C9382E080936B000C94490350
:100600004091800000916700041781E009F080E0CC
:100610008F934091810000916800041781E009F0F8
:1006200080E09F918923882311F40C94220389E5AB
:1006300090E0A2E7B0E08D939C9382E080936B0002
:100640000C9449034091820000916700041781E0F7
:1006500009F080E08F9340918300009168000417B7
:1006600081E009F080E09F918923882311F40C94A4
:10067000440381E690E0A2E7B0E08D939C9382E092
:1006800080936B000C9449038AE080936B000E9476
:10069000FE060C943305053011F00C946A0381E0DA
:1006A00080936D0000916D00003218F011F00C94F1
:1006B000660381E080936B000E94FE06ADE6B0E029
:1006C0008C918F5F8C9310F40C9452030E94FE0661
:1006D0000C943305013011F00C9439040091610041
:1006E000013011F00C941C0489E090E0A2E7B0E026
:1006F0008D939C9381E080936300009163000430AC
:1007000018F011F00C94FC0381E080936B00A0E7DB
:10071000B0E08D919C91A5E8B0E08D939C930E94F0
:1007200042080E94480981E08A9381E08A9388E028
:100730008A93AEE6B0E081E08A93E7E386E0E8944E
:100740000E94ED08A2E7B0E0ED91FC91AEE6B0E0CA
:1007500091E07BE70E947D08A2E7B0E00E94CC0711
:10076000A0E7B0E08D919C91A5E8B0E08D939C93BB
:100770000E9442080E94480981E08A9381E08A939E
:1007800088E08A93AFE6B0E081E08A93E7E386E011
:10079000E8940E94ED08A2E7B0E0ED91FC91AFE68D
:1007A000B0E091E07BE70E947D08A2E7B0E00E9404
:1007B000CC07A0E7B0E08D919C91A5E8B0E08D93C7
:1007C0009C930E9442080E94480981E08A9380E03D
:1007D0008A9388E08A9381E08A93ABE6B0E0E7E30E
:1007E00086E0E8940E949508A3E6B0E08C918F5FC4
:1007F0008C9310F40C947D0380E080936B00A0E751
:10080000B0E08D919C91A5E8B0E08D939C930E94FF
:1008100042080E94480981E08A9380E08A9388E038
:100820008A9381E08A93ABE6B0E0E7E386E0E89460
:100830000E9495080C943704A0E7B0E08D919C913C
:10084000A5E8B0E08D939C930E9442080E9448095D
:1008500081E08A9380E08A9388E08A9381E08A939A
:10086000ABE6B0E0E7E386E0E8940E9495080C94DC
:100870003305043C11F00C94C904A1E6B0E08C915E
:10088000A2E7B0E08D9388278C9384EC80936B0073
:1008900081E08093630000916300043018F011F050
:1008A0000C94C704A0E7B0E08D919C91A5E8B0E05E
:1008B0008D939C930E9442080E94480981E08A938C
:1008C00081E08A9388E08A93AEE6B0E081E08A9383
:1008D000E7E386E0E8940E94ED08A2E7B0E0ED913E
:1008E000FC91AEE6B0E091E07BE70E947D08A2E7D4
:1008F000B0E00E94CC07A0E7B0E08D919C91A5E804
:10090000B0E08D939C930E9442080E94480981E0C8
:100910008A9381E08A9388E08A93AFE6B0E081E031
:100920008A93E7E386E0E8940E94ED08A2E7B0E04E
:10093000ED91FC91AFE6B0E091E07BE70E947D088D
:10094000A2E7B0E00E94CC07A0E7B0E08D919C91B7
:10095000A5E8B0E08D939C930E9442080E9448094C
:1009600081E08A9380E08A9388E08A9381E08A9389
:10097000ABE6B0E0E7E386E0E8940E949508A3E6E2
:10098000B0E08C918F5F8C9310F40C944B040C941A
:100990003305013C11F00C943305A1E6B0E08C91D5
:1009A000A2E7B0E08D9388278C9381EC80936B0055
:1009B000A0E7B0E08D919C91A5E8B0E08D939C9369
:1009C0000E9442080E94480981E08A9381E08A934C
:1009D00088E08A93AEE6B0E081E08A93E7E386E0C0
:1009E000E8940E94ED08A2E7B0E0ED91FC91AEE63C
:1009F000B0E091E07BE70E947D08A0E7B0E08D9138
:100A00009C91A5E8B0E08D939C930E9442080E94BF
:100A1000480981E08A9381E08A9388E08A93AFE66F
:100A2000B0E081E08A93E7E386E0E8940E94ED0875
:100A3000A0E7B0E08D919C91A5E8B0E08D939C93E8
:100A40000E9442080E94480981E08A9380E08A93CC
:100A500088E08A9381E08A93ABE6B0E0E7E386E042
:100A6000E8940E94950800916B00023011F00C94FC
:100A70003B050E947C0580E080936B000C94F6009F
:100A800081E08093630000916300083018F011F05A
:100A90000C947A05E4E8FFE00E94C6070E94C907AB
:100AA000ABE6B0E00E9455080C920E94C607A0E792
:100AB000B0E08D919C91A5E8B0E08D939C930E944D
:100AC00042080E94480981E08A9380E08A9388E086
:100AD0008A9381E08A93ABE6B0E0E7E386E0E894AE
:100AE0000E949508A3E6B0E08C918F5F8C9310F480
:100AF0000C944305F894FFCF8091690080936B00BC
:100B00000E94FE0681E0809363000091630008303C
:100B100018F011F00C944106A0E7B0E08D919C9183
:100B2000A5E8B0E08D939C930E9442080E9448097A
:100B300081E08A9380E08A9388E08A93AEE6B0E011
:100B400081E08A93E7E386E0E8940E94ED08A2E75B
:100B5000B0E0ED91FC91A2E6B0E091E00E948E0839
:100B600080E080936C0081E080936D0000916D00C7
:100B7000083018F011F00C94DC050091620041E09F
:100B80000423A5E6B0E00C9300916500013011F05C
:100B90000C94CF05ACE6B0E08C9180958C9391E0FD
:100BA000A2E6B0E00E944B08ADE6B0E08C918F5F0A
:100BB0008C9310F40C94B605A0E7B0E08D919C9155
:100BC000A5E8B0E08D939C930E9442080E944809DA
:100BD00081E08A9381E08A9388E08A93AEE6B0E070
:100BE00081E08A93E7E386E0E8940E94ED080091B3
:100BF0006C00003011F00C941A0600E815E220E0B9
:100C000030E0A5E8B0E00D931D932D933C930E9436
:100C1000480981E08A9381E08A9388E08A9381E0A1
:100C20008A93A2E6B0E0E7E386E0E8940E949508A4
:100C30000C94350600E815E220E030E0A5E8B0E0CD
:100C40000D931D932D933C930E94480981E08A9354
:100C500082E08A9388E08A9381E08A93A2E6B0E0FA
:100C6000E7E386E0E8940E949508A2E7B0E00E94DE
:100C7000CC07A3E6B0E08C918F5F8C9310F40C94BA
:100C80008505A2E7B0E00D911C910A3750E01507E9
:100C90001CF011F00C944E060C94F706A0E7B0E09F
:100CA0008D919C91A5E8B0E08D939C930E944208A1
:100CB0000E94480981E08A9380E08A9388E08A93C1
:100CC000AEE6B0E081E08A93E7E386E0E8940E9434
:100CD000ED08A2E7B0E0ED91FC91A2E6B0E091E072
:100CE0000E948E0880E080936C0081E080936D000C
:100CF00000916D00083018F011F00C949E060091E0
:100D0000620041E00423A5E6B0E00C930091650089
:100D1000013011F00C949106ACE6B0E08C91809516
:100D20008C9391E0A2E6B0E00E944B08ADE6B0E003
:100D30008C918F5F8C9310F40C947806A0E7B0E050
:100D40008D919C91A5E8B0E08D939C930E94420800
:100D50000E94480981E08A9381E08A9388E08A931F
:100D6000AEE6B0E081E08A93E7E386E0E8940E9493
:100D7000ED0800916C00003011F00C94DC0600E8E6
:100D800015E220E030E0A5E8B0E00D931D932D932F
:100D90003C930E94480981E08A9381E08A9388E02D
:100DA0008A9381E08A93A2E6B0E0E7E386E0E894E4
:100DB0000E9495080C94F70600E815E220E030E068
:100DC000A5E8B0E00D931D932D933C930E94480934
:100DD00081E08A9382E08A9388E08A9381E08A9313
:100DE000A2E6B0E0E7E386E0E8940E9495088091EF
:100DF0006A0080936B000E94FE060895A0E7B0E0B1
:100E00008D919C91A5E8B0E08D939C930E9442083F
:100E10000E94480981E08A9380E08A9388E08A935F
:100E2000AEE6B0E081E08A93E7E386E0E8940E94D2
:100E3000ED08A0E7B0E08D919C91A5E8B0E08D931E
:100E40009C930E9442080E94480981E08A9381E0B5
:100E50008A9388E08A93AFE6B0E081E08A93E7E383
:100E600086E0E8940E94ED08A0E7B0E08D919C91A7
:100E7000A5E8B0E08D939C930E9442080E94480927
:100E800081E08A9380E08A9388E08A9381E08A9364
:100E9000ABE6B0E0E7E386E0E8940E94950880E0E6
:100EA00080936B000895A0E7B0E08D919C91A5E838
:100EB000B0E08D939C930E9442080E94480981E013
:100EC0008A9381E08A9388E08A93A7E6B0E081E084
:100ED0008A93E7E386E0E8940E94ED08A0E7B0E09B
:100EE0008D919C91A5E8B0E08D939C930E9442085F
:100EF0000E94480981E08A9381E08A9388E08A937E
:100F0000A8E6B0E081E08A93E7E386E0E8940E94F7
:100F1000ED08A0E7B0E08D919C91A5E8B0E08D933D
:100F20009C930E9442080E94480981E08A9380E0D5
:100F30008A9388E08A9381E08A93A6E6B0E0E7E3AB
:100F400086E0E8940E9495080895FFFFFFFFFFFFE9
:100F5000FFFFFFFF232323232323232323232323F1
:100F6000232323232843294E454F3735333020325E
:100F7000303139FF23232323232323232323232334
:100F80002323232347414D454F5645528E2E9F2EF6
:100F90000895E82DF92D0895ED91FC91EF5FFF4F35
:100FA000FC93EE93089500FC05D0089530D005D051
:100FB00001F8F9CF37D03FD00895842F952FA62F71
:100FC000B72FE894452B462B472B11F468940895CE
:100FD000402F512F622F732F0027112722273327ED
:100FE000F0E2440F551F661F771F001F111F221FBD
:100FF000331F081B190B2A0B3B0B416028F4080F09
:10100000191F2A1F3B1F4E7FFA9559F70895002498
:10101000E89477FF02C006D0689400F809D010F871
:101020000124089512D04F5F5F4F6F4F7F4F089597
:10103000E89437FF089500951095209530950F5F3F
:101040001F4F2F4F3F4F68940895409550956095DE
:10105000709508953197F1F70895689462F80895AE
:10106000E89462F80895EF93FF93EE27E82BE92BBD
:1010700031F0E6EBF3E03197F1F70197D1F7FF910B
:10108000EF9108958D9187FB16F48FEF01C08827AB
:101090008D938C930895903039F08C91869508F457
:1010A00080689A95D9F78C930895C8953196002059
:1010B000089591E0882321F08894991F8A95E9F793
:1010C000892F909508950F938F9308E09927881F93
:1010D00008F493950A95D9F78F910F910895041B01
:1010E000150B260B370B0895E199FECFEEBBFFBB26
:1010F0003196089591E001C092E07B3751F47FB7BB
:10110000F894F2DF8D918DBBE29AE19A9A95C9F736
:101110007FBF7727089591E001C092E0E5DFE09A74
:101120008DB38D939A95D1F70895C3DFFF27008083
:1011300009220082E395008009220082082F692F8E
:10114000EA9549918D9118811730C1F419811030B9
:1011500031F4806880952A81285F992726C0113054
:1011600049F40E94630890FD806880952A81275F7A
:1011700099271BC0A8DF90FF8068F7CF1981103036
:1011800029F480952A81275F99270FC0113041F4F7
:101190000E94630880952A81265F9095917005C012
:1011A00092DF80952A81265F9170089416F028F4CA
:1011B00001C018F00080002A03C000800622000051
:1011C00000825BD05AD0969587952A9579F74A95F3
:1011D00009F0B8CF239651D008956BDFFF27008028
:1011E00009220082E3950080092200823297082FAD
:1011F000692F4991342F1881173049F41981103023
:1012000019F42A81295F0BC02A81285F08C019813F
:10121000103019F42A81285F02C02A81275F522FDB
:101220000080002216F019F0FBCF09F4F9CF25D089
:1012300024D023D088940080002209F008942A95B5
:1012400019F087959795F4CF5A3028F05950991F87
:10125000881F5A95E1F70EF480951881173009F42C
:101260008F778D93303031F48D3029F688278C9329
:10127000239608954A95E1F3BECF8F939F93809173
:101280008500909186000197F1F79F918F910895C5
:1012900000EC1BEF29E330E0A5E8B0E04D915D9153
:1012A0006D917C910E94D607A5E8B0E04D935D93C7
:1012B0006D937D93A5E8B0E00D911D912D913C912A
:1012C0004AE250E060E070E00E946F08A5E8B0E0FC
:1012D0000D931D932D933D93A5E8B0E00D911D91C5
:1012E0002D913C9148E050E060E070E00E94D6070C
:0E12F000A5E8B0E04D935D936D937D93089556
:00000001FF
