:100000000CC0189518951895189518951895189569
:10001000189518951895189518958FE58DBFC8E314
:10002000E0E24E2E82E08EBFD2E0F2E05F2EEEEFF5
:10003000F1E0A0E6B0E088278D933197E9F76624D8
:100040008DEE94E2A0E7B0E08D939C93EFEAF0E0B0
:10005000A2E6B0E091E06DD780E08093840080EA72
:1000600090E0A2E7B0E08D939C9381E080936300E1
:10007000009163000F3010F009F01AC0A2E7B0E061
:10008000ED91FC91ABE6B0E091E053D70091840094
:1000900040916B000427A4E8B0E00C93A2E7B0E025
:1000A00086D6A3E6B0E08C918F5F8C9308F4E0CF06
:1000B0004091620000918400041709F407C0EFEA40
:1000C000F0E0A4E8B0E091E07BE722D70091840063
:1000D0000D3209F002C005C001C021C48AE090E0E1
:1000E000CDD680EA8093660089E690E0A2E7B0E092
:1000F0008D939C9381E080936300009163000830AE
:1001000010F009F018C0A2E7B0E0ED91FC91A3E671
:10011000B0E0AD90BB24A3E7B0E0AA0DBB1D91E019
:1001200008D7A2E7B0E043D6A3E6B0E08C918F5F9A
:100130008C9308F4E2CF81E790E0A2E7B0E08D93E2
:100140009C9381E08093630000916300083010F07D
:1001500009F018C0A2E7B0E0ED91FC91A3E6B0E091
:10016000AD90BB24ABE7B0E0AA0DBB1D91E0E1D69A
:10017000A2E7B0E01CD6A3E6B0E08C918F5F8C9331
:1001800008F4E2CFA0E7B0E08D919C91A5E8B0E043
:100190008D939C9382D685D781E08A9380E08A9361
:1001A00088E08A93A0E6B0E081E08A93E7E386E006
:1001B000E8941CD7A0E7B0E08D919C91A5E8B0E051
:1001C0008D939C936AD66DD781E08A9381E08A9360
:1001D00088E08A93A1E6B0E081E08A93E7E386E0D5
:1001E000E89404D7A0E7B0E08D919C91A5E8B0E039
:1001F0008D939C9352D655D781E08A9380E08A9361
:1002000088E08A9381E08A93A6E6B0E0E7E386E09F
:10021000E89496D6009160000F3509F04CC082E05A
:100220008093690080E080936A0000916100003053
:1002300009F029C04CD500916700003009F00AC0D0
:1002400089E790E0A2E7B0E08D939C9382E08093F1
:100250006B0018C0013009F00AC082E890E0A2E704
:10026000B0E08D939C9382E080936B000BC00230D2
:1002700009F008C081E080936B00DDD48AE78093A9
:100280006B00D9D417C0023009F009C081E0809317
:100290006B00D1D48AE780936B00CDD40BC00330C0
:1002A00009F008C081E080936B00C5D48AE4809394
:1002B0006B00C1D42AC3023009F025C082E08093CC
:1002C000690080E080936A0000916100003009F0CD
:1002D0000DC081E08093660081E090E0A2E7B0E08D
:1002E0008D939C9382E080936B000CC0013009F0E9
:1002F00009C089E090E0A2E7B0E08D939C9382E092
:1003000080936B0002C3073509F02FC082E0809311
:10031000690080E080936A0000916100003009F07C
:100320000AC081E190E0A2E7B0E08D939C9382E067
:1003300080936B0019C0013009F00AC089E190E098
:10034000A2E7B0E08D939C9382E080936B000CC099
:10035000023009F009C081E290E0A2E7B0E08D939D
:100360009C9382E080936B00D0C2063009F020C1DC
:1003700086E08093690082E080936A00A8D481E0DF
:1003800080936300009163000B3010F009F00BC004
:1003900081E080936B004FD4A3E6B0E08C918F5F37
:1003A0008C9308F4EFCF409174000091670004171C
:1003B00081E009F080E08F93409175000091680022
:1003C000041781E009F080E09F918923882309F4D4
:1003D0000AC089E290E0A2E7B0E08D939C9382E0AE
:1003E00080936B00E4C04091760000916700041791
:1003F00081E009F080E08F934091770000916800E0
:10040000041781E009F080E09F918923882309F493
:100410000AC081E390E0A2E7B0E08D939C9382E074
:1004200080936B00C4C0409178000091670004176E
:1004300081E009F080E08F9340917900009168009D
:10044000041781E009F080E09F918923882309F453
:100450000AC089E390E0A2E7B0E08D939C9382E02C
:1004600080936B00A4C040917A000091670004174C
:1004700081E009F080E08F9340917B00009168005B
:10048000041781E009F080E09F918923882309F413
:100490000AC081E490E0A2E7B0E08D939C9382E0F3
:1004A00080936B0084C040917C000091670004172A
:1004B00081E009F080E08F9340917D000091680019
:1004C000041781E009F080E09F918923882309F4D3
:1004D0000AC089E490E0A2E7B0E08D939C9382E0AB
:1004E00080936B0064C040917E0000916700041708
:1004F00081E009F080E08F9340917F0000916800D7
:10050000041781E009F080E09F918923882309F492
:100510000AC081E590E0A2E7B0E08D939C9382E071
:1005200080936B0044C040918000009167000417E5
:1005300081E009F080E08F93409181000091680094
:10054000041781E009F080E09F918923882309F452
:100550000AC089E590E0A2E7B0E08D939C9382E029
:1005600080936B0024C040918200009167000417C3
:1005700081E009F080E08F93409183000091680052
:10058000041781E009F080E09F918923882309F412
:100590000AC081E690E0A2E7B0E08D939C9382E0F0
:1005A00080936B0004C08AE080936B0044D3ADC19C
:1005B000053009F016C081E080936D0000916D0058
:1005C000003210F009F00BC081E080936B0033D350
:1005D000ADE6B0E08C918F5F8C9308F4EFCF2BD316
:1005E00094C1013009F0B3C000916100013009F0FD
:1005F00095C089E090E0A2E7B0E08D939C9381E004
:100600008093630000916300043010F009F06AC029
:1006100081E080936B00A0E7B0E08D919C91A5E80C
:10062000B0E08D939C9339D43CD581E08A9381E0EE
:100630008A9388E08A93AEE6B0E081E08A93E7E3AC
:1006400086E0E894D3D4A2E7B0E0ED91FC91AEE669
:10065000B0E091E07BE75CD4A2E7B0E0A8D3A0E7EC
:10066000B0E08D919C91A5E8B0E08D939C9315D45A
:1006700018D581E08A9381E08A9388E08A93AFE677
:10068000B0E081E08A93E7E386E0E894AFD4A2E7A4
:10069000B0E0ED91FC91AFE6B0E091E07BE738D4BB
:1006A000A2E7B0E084D3A0E7B0E08D919C91A5E8EB
:1006B000B0E08D939C93F1D3F4D481E08A9380E0F1
:1006C0008A9388E08A9381E08A93ABE6B0E0E7E31F
:1006D00086E0E89435D4A3E6B0E08C918F5F8C93EC
:1006E00008F490CF80E080936B00A0E7B0E08D919C
:1006F0009C91A5E8B0E08D939C93CFD3D2D481E0B8
:100700008A9380E08A9388E08A9381E08A93ABE6BB
:10071000B0E0E7E386E0E89413D418C0A0E7B0E0C7
:100720008D919C91A5E8B0E08D939C93B6D3B9D4FC
:1007300081E08A9380E08A9388E08A9381E08A93BB
:10074000ABE6B0E0E7E386E0E894FAD3DEC0043C31
:1007500009F07CC0A1E6B0E08C91A2E7B0E08D93F7
:1007600088278C9384EC80936B0081E080936300F6
:1007700000916300043010F009F067C0A0E7B0E01A
:100780008D919C91A5E8B0E08D939C9386D389D4FC
:1007900081E08A9381E08A9388E08A93AEE6B0E0B4
:1007A00081E08A93E7E386E0E89420D4A2E7B0E012
:1007B000ED91FC91AEE6B0E091E07BE7A9D3A2E732
:1007C000B0E0F5D2A0E7B0E08D919C91A5E8B0E053
:1007D0008D939C9362D365D481E08A9381E08A9360
:1007E00088E08A93AFE6B0E081E08A93E7E386E0B1
:1007F000E894FCD3A2E7B0E0ED91FC91AFE6B0E065
:1008000091E07BE785D3A2E7B0E0D1D2A0E7B0E0EA
:100810008D919C91A5E8B0E08D939C933ED341D4FB
:1008200081E08A9380E08A9388E08A9381E08A93CA
:10083000ABE6B0E0E7E386E0E89482D3A3E6B0E07D
:100840008C918F5F8C9308F493CF5FC0013C09F0CB
:100850005CC0A1E6B0E08C91A2E7B0E08D93882760
:100860008C9381EC80936B00A0E7B0E08D919C911C
:10087000A5E8B0E08D939C9310D313D481E08A93C4
:1008800081E08A9388E08A93AEE6B0E081E08A93C3
:10089000E7E386E0E894AAD3A2E7B0E0ED91FC910B
:1008A000AEE6B0E091E07BE733D3A0E7B0E08D9116
:1008B0009C91A5E8B0E08D939C93EFD2F2D381E0B8
:1008C0008A9381E08A9388E08A93AFE6B0E081E082
:1008D0008A93E7E386E0E89489D3A0E7B0E08D91BE
:1008E0009C91A5E8B0E08D939C93D7D2DAD381E0B8
:1008F0008A9380E08A9388E08A9381E08A93ABE6CA
:10090000B0E0E7E386E0E8941BD300916B0002308F
:1009100009F001C037D080E080936B0033CC81E0D8
:100920008093630000916300083010F009F028C044
:10093000EAE9FDE036D238D2ABE6B0E0C1D20C92A3
:1009400030D2A0E7B0E08D919C91A5E8B0E08D9306
:100950009C93A3D2A6D381E08A9380E08A9388E017
:100960008A9381E08A93ABE6B0E0E7E386E0E8941F
:10097000E7D2A3E6B0E08C918F5F8C9308F4D2CFDE
:10098000F894FFCF8091690080936B0054D181E08F
:100990008093630000916300083010F009F0A2C05A
:1009A000A0E7B0E08D919C91A5E8B0E08D939C9379
:1009B00074D277D381E08A9380E08A9388E08A9327
:1009C000AEE6B0E081E08A93E7E386E0E8940ED3F8
:1009D000A2E7B0E0ED91FC91A2E6B0E091E0A9D2EF
:1009E00080E080936C0081E080936D0000916D0049
:1009F000083010F009F01CC00091620041E00423AF
:100A0000A5E6B0E00C9300916500013009F005C047
:100A1000ACE6B0E08C9180958C9391E0A2E6B0E0DA
:100A200045D2ADE6B0E08C918F5F8C9308F4DECFB9
:100A3000A0E7B0E08D919C91A5E8B0E08D939C93E8
:100A40002CD22FD381E08A9381E08A9388E08A9325
:100A5000AEE6B0E081E08A93E7E386E0E894C6D2B0
:100A600000916C00003009F01AC000E815E220E0A7
:100A700030E0A5E8B0E00D931D932D933C9311D386
:100A800081E08A9381E08A9388E08A9381E08A9367
:100A9000A2E6B0E0E7E386E0E89452D219C000E8AD
:100AA00015E220E030E0A5E8B0E00D931D932D9312
:100AB0003C93F7D281E08A9382E08A9388E08A931C
:100AC00081E08A93A2E6B0E0E7E386E0E89438D2DA
:100AD000A2E7B0E06CD1A3E6B0E08C918F5F8C937D
:100AE00008F458CFA2E7B0E00D911C910A3750E00E
:100AF000150714F009F001C098C0A0E7B0E08D918F
:100B00009C91A5E8B0E08D939C93C7D1CAD281E0B7
:100B10008A9380E08A9388E08A93AEE6B0E081E031
:100B20008A93E7E386E0E89461D2A2E7B0E0ED9132
:100B3000FC91A2E6B0E091E0FCD180E080936C00F3
:100B400081E080936D0000916D00083010F009F095
:100B50001CC00091620041E00423A5E6B0E00C93C4
:100B600000916500013009F005C0ACE6B0E08C9161
:100B700080958C9391E0A2E6B0E098D1ADE6B0E02C
:100B80008C918F5F8C9308F4DECFA0E7B0E08D915D
:100B90009C91A5E8B0E08D939C937FD182D281E0B7
:100BA0008A9381E08A9388E08A93AEE6B0E081E0A0
:100BB0008A93E7E386E0E89419D200916C00003054
:100BC00009F01AC000E815E220E030E0A5E8B0E046
:100BD0000D931D932D933C9364D281E08A9381E021
:100BE0008A9388E08A9381E08A93A2E6B0E0E7E303
:100BF00086E0E894A5D119C000E815E220E030E0D5
:100C0000A5E8B0E00D931D932D933C934AD281E06B
:100C10008A9382E08A9388E08A9381E08A93A2E6AD
:100C2000B0E0E7E386E0E8948BD180916A0080939E
:100C30006B0001D00895A0E7B0E08D919C91A5E8EC
:100C4000B0E08D939C9329D12CD281E08A9380E0EF
:100C50008A9388E08A93AEE6B0E081E08A93E7E386
:100C600086E0E894C3D1A0E7B0E08D919C91A5E81F
:100C7000B0E08D939C9311D114D281E08A9381E0EE
:100C80008A9388E08A93AFE6B0E081E08A93E7E355
:100C900086E0E894ABD1A0E7B0E08D919C91A5E807
:100CA000B0E08D939C93F9D0FCD181E08A9380E0F1
:100CB0008A9388E08A9381E08A93ABE6B0E0E7E329
:100CC00086E0E8943DD180E080936B000895A0E732
:100CD000B0E08D919C91A5E8B0E08D939C93DDD020
:100CE000E0D181E08A9381E08A9388E08A93A7E645
:100CF000B0E081E08A93E7E386E0E89477D1A0E76B
:100D0000B0E08D919C91A5E8B0E08D939C93C5D007
:100D1000C8D181E08A9381E08A9388E08A93A8E62B
:100D2000B0E081E08A93E7E386E0E8945FD1A0E752
:100D3000B0E08D919C91A5E8B0E08D939C93ADD0EF
:100D4000B0D181E08A9380E08A9388E08A9381E041
:100D50008A93A6E6B0E0E7E386E0E894F1D0089550
:100D6000FFFFFFFFFFFFFFFFFFFF232323232323BB
:100D7000232323232323232323232843294E454F9F
:100D8000373533302032303139FF232323232323D7
:100D90002323232323232323232347414D454F5636
:100DA00045528E2E9F2E0895E82DF92D0895ED9130
:100DB000FC91EF5FFF4FFC93EE93089500FC05D08C
:100DC000089530D005D001F8F9CF37D03FD008953D
:100DD000842F952FA62FB72FE894452B462B472B12
:100DE00011F468940895402F512F622F732F00271C
:100DF000112722273327F0E2440F551F661F771F64
:100E0000001F111F221F331F081B190B2A0B3B0B3E
:100E1000416028F4080F191F2A1F3B1F4E7FFA95C7
:100E200059F708950024E89477FF02C006D068942B
:100E300000F809D010F80124089512D04F5F5F4FD9
:100E40006F4F7F4F0895E89437FF089500951095F0
:100E5000209530950F5F1F4F2F4F3F4F6894089597
:100E6000409550956095709508953197F1F70895E4
:100E7000689462F80895E89462F80895EF93FF93F8
:100E8000EE27E82BE92B31F0E6EBF3E03197F1F7B1
:100E90000197D1F7FF91EF9108958D9187FB16F49B
:100EA0008FEF01C088278D938C930895903039F08F
:100EB0008C91869508F480689A95D9F78C9308955B
:100EC000C89531960020089591E0882321F08894F8
:100ED000991F8A95E9F7892F909508950F938F931D
:100EE00008E09927881F08F493950A95D9F78F9100
:100EF0000F910895041B150B260B370B0895E199EC
:100F0000FECFEEBBFFBB3196089591E001C092E0A9
:100F10007B3751F47FB7F894F2DF8D918DBBE29A65
:100F2000E19A9A95C9F77FBF7727089591E001C0AC
:100F300092E0E5DFE09A8DB38D939A95D1F708950D
:100F4000C3DFFF27008009220082E3950080092289
:100F50000082082F692FEA9549918D9118811730E9
:100F6000B9F41981103031F4806880952A81285FA6
:100F7000992724C0113041F4B1DF90FD806880953D
:100F80002A81275F99271AC0A9DF90FF8068F7CFD1
:100F90001981103029F480952A81275F99270EC086
:100FA000113039F49BDF80952A81265F90959170EE
:100FB00005C094DF80952A81265F9170089416F011
:100FC00028F401C018F00080002A03C00080062227
:100FD000000000825BD05AD0969587952A9579F7C4
:100FE0004A9509F0BACF239651D008956DDFFF27B7
:100FF000008009220082E395008009220082329756
:10100000082F692F4991342F1881173049F419811D
:10101000103019F42A81295F0BC02A81285F08C08B
:101020001981103019F42A81285F02C02A81275FB4
:10103000522F0080002216F019F0FBCF09F4F9CFEF
:1010400025D024D023D088940080002209F0089471
:101050002A9519F087959795F4CF5A3028F0595072
:10106000991F881F5A95E1F70EF480951881173063
:1010700009F48F778D93303031F48D3029F688273D
:101080008C93239608954A95E1F3BECF8F939F9357
:1010900080918500909186000197F1F79F918F9143
:1010A000089500EC1BEF29E330E0A5E8B0E04D9196
:1010B0005D916D917C9185DEA5E8B0E04D935D93E7
:1010C0006D937D93A5E8B0E00D911D912D913C911C
:1010D0004AE250E060E070E00DDFA5E8B0E00D937B
:1010E0001D932D933D93A5E8B0E00D911D912D9199
:1010F0003C9148E050E060E070E063DEA5E8B0E0DD
:0A1100004D935D936D937D93089568
:00000001FF
