:100000000C94240018950000189500001895000025
:10001000189500001895000018950000189500002C
:10002000189500001895000018950000189500001C
:10003000189500001895000018950000189500000C
:1000400018950000189500008FE58DBFC8E3E0E229
:100050004E2E84E08EBFD4E0F4E05F2EA89584B7E6
:10006000082E877F84BF88E1992781BD91BDEEEF7F
:10007000F3E0A0E6B0E088278D933197E9F7662496
:1000800080E895E2A6E6B0E08D939C9381E08093B2
:100090006C0080E080936500009165000F3018F0DF
:1000A00011F00C946F00ACE6B0E0EC91FF27A5E6F0
:1000B000B0E0AD90BB24A0E7B0E0AA0DBB1D91E07D
:1000C0000E94B20BACE6B0E08C918F5F8C93A5E6FA
:1000D000B0E08C918F5F8C9310F40C944C0080E016
:1000E00080936500009165000F3518F011F00C94B5
:1000F0009500ACE6B0E0EC91FF27A5E6B0E0AD904E
:10010000BB24ACEAB0E0AA0DBB1D91E00E94B20B8B
:10011000ACE6B0E08C918F5F8C93A5E6B0E08C915B
:100120008F5F8C9310F40C94720080E080936500D4
:1001300000916500073D18F011F00C94BB00ACE68F
:10014000B0E0EC91FF27A5E6B0E0AD90BB24A0E2C3
:10015000B1E0AA0DBB1D91E00E94B20BACE6B0E08D
:100160008C918F5F8C93A5E6B0E08C918F5F8C9320
:1001700010F40C9498000E94EF0280E080936C00D1
:1001800085E080936E00E0E1F4E10E94890A8FE04F
:10019000D2018C9381E00E94350B0E948209229645
:1001A00081E00E94310B80E080936E0080E08093BC
:1001B0006A00A6E6B0E08D919C91A8EFB1E08D9326
:1001C0009C930E941B0B0E946C0C81E08A9382E03E
:1001D0008A9388E08A93A0E6B0E085E08A93E7E31B
:1001E00086E0E8940E94110C00916100013D11F03D
:1001F0000C949A0181ED80936800A6E6B0E08D91A1
:100200009C91A8EFB1E08D939C930E941B0B0E94E0
:100210006C0C81E08A9382E08A9388E08A9381E083
:100220008A93A8E6B0E0E7E386E0E8940E94B90B81
:1002300080E080936500009165000F3118F011F0A7
:100240000C945801A6E6B0E08D919C91A8EFB1E026
:100250008D939C930E941B0B0E946C0C81E08A93EF
:1002600082E08A9388E08A93A5E6B0E0AD90BB2453
:10027000A4E8B0E0AA0DBB1D81E08A93E7E386E025
:10028000E8940E94110CA5E6B0E0AD90BB24A4E870
:10029000B0E0AA0DBB1DBA93AA930E945902229600
:1002A000A5E6B0E08C918F5F8C9310F40C941B0149
:1002B00000918400083F11F00C94630183E0809367
:1002C0006D000C947E0100918A00003211F00C94B4
:1002D0006E0180E080936D000C947E01033611F076
:1002E0000C94770181E080936D000C947E010C30BA
:1002F00011F00C947E0182E080936D0000916D00FE
:10030000003011F00C9486010E94140500916D00DC
:10031000013011F00C948E010E94380300916D00A1
:10032000023011F00C9496010E940A070E94CB093A
:100330000C945502013E11F00C94CA0100916D001D
:10034000033010F00C94A8010E94E9080C94C80135
:1003500000918900053811F00C94B401E2E3F4E156
:100360000E94890A0C94BC01013D11F00C94BC015F
:10037000ECE3F4E10E94890A88E0D2018C9381E0E9
:100380000E94350B0E948209229681E00E94310B67
:100390000C945502013C11F00C94E001E0E2F4E110
:1003A0000E94890A80E1D2018C9381E00E94350B82
:1003B0000E948209229681E00E94310B0C94550222
:1003C000013A11F00C94530240916D0000916E00BF
:1003D000041711F40C94F30180916D0080936E006A
:1003E00080E080936C0000916C00053081E008F0A3
:1003F00080E08F9300916B00003081E009F080E095
:100400009F918923882311F40C94350200916D008B
:10041000003011F00C941002E6E4F4E10E94890A25
:1004200000916D00013011F00C941A02EAE7F4E13A
:100430000E94890A00916D00023011F00C94240290
:10044000E4E9F4E10E94890A00916D00033011F0A3
:100450000C942E02E0E6F4E10E94890AACE6B0E0DA
:100460008C918F5F8C930C94450200916B0000304F
:1004700011F40C944102E8ECF4E10E94890A0C9416
:100480004502EEEAF4E10E94890A89E1D2018C93E7
:1004900081E00E94350B0E948209229681E00E9431
:1004A000310B0C9455020E94CB090C94D900F8949E
:1004B000FFCFA881B9810C914AEA0423AAE6B0E0F3
:1004C0000C9391E0AAE6B0E00E94650BA881B98187
:1004D0008C9185758C9391E0A881B9810E94450B20
:1004E00000916A00A881B9814C91042BA881B9813F
:1004F0000C93A881B9810C914CEC0423AAE6B0E0DE
:100500000C9392E0AAE6B0E00E94650BA881B98145
:100510008C9183738C9392E0A881B9810E94450BE2
:1005200000916A00A881B9814C91042BA881B981FE
:100530000C93A881B9818C9182958C93A881B98103
:100540008C918C939FEF89278C93089500918F0055
:100550008091920080938F00A2E9B0E00C9300910B
:1005600090008091910080939000A1E9B0E00C93FD
:10057000009193008091960080939300A6E9B0E0EB
:100580000C93009194008091950080939400A5E9CC
:10059000B0E00C930091970080919A0080939700AF
:1005A000AAE9B0E00C9300919800809199008093A3
:1005B0009800A9E9B0E00C9300919B0080919E0007
:1005C00080939B00AEE9B0E00C9300919C00809179
:1005D0009D0080939C00ADE9B0E00C9308950091DC
:1005E00070008091730080937000A3E7B0E00C93DB
:1005F000009171008091720080937100A2E7B0E0D9
:100600000C93009174008091770080937400A7E7A9
:10061000B0E00C9300917500809176008093750096
:10062000A6E7B0E00C930091780080917B00809366
:100630007800ABE7B0E00C930091790080917A00EC
:1006400080937900AAE7B0E00C9300917C00809140
:100650007F0080937C00AFE7B0E00C9300917D00B9
:1006600080917E0080937D00AEE7B0E00C9308950A
:1006700080E080936B000E94A60200E010E020E082
:1006800030E0ACE0B1E00D931D932D933C9309EB6A
:1006900019E727E33EE9A0E1B1E00D931D932D9307
:1006A0003C9380E080936500009165000F3118F065
:1006B00011F00C94ED04A3E9B0E00D911D912D9182
:1006C0003C91A4E1B1E00D931D932D933C9394E0F4
:1006D000A4E1B1E00E94580BA3E9B0E00D911D9197
:1006E0002D913C91A8E1B1E00D931D932D933C9386
:1006F00095E0A8E1B1E00E94780BA4E1B1E00D9192
:100700001D912D913C91A8E1B1E04D915D916D91CC
:100710007C910E94080BA4E1B1E00D931D932D93F1
:100720003D93A4E1B1E00D911D912D913C91A3E980
:10073000B0E04D915D916D917C910E949F0BA4E181
:10074000B1E00D931D932D933D93ACE0B1E00D917D
:100750001D912D913C9143E050E060E070E00E94DB
:100760000D0BA8E1B1E00D931D932D933D93ACE0EB
:10077000B1E00D911D912D913C91A8E1B1E0AD90BA
:10078000BD90A0E7B0E0AA0CBB1CAA0CBB1CAA0D34
:10079000BB1D4D915D916D917C910E949F0BA8E1D5
:1007A000B1E00D931D932D933D93A4E1B1E00D9124
:1007B0001D912D913C91A8E1B1E04D915D916D911C
:1007C0007C910E94080BA4E1B1E00D931D932D9341
:1007D0003D93AFE8B0E00D911D912D913C91A4E1C6
:1007E000B1E04D915D916D917C910E949F0BAFE8BE
:1007F000B0E00D931D932D933D93ACE0B1E00D91CE
:100800001D912D913C91A0E1B1E04D915D916D91D3
:100810007C910E949F0BACE0B1E00D931D932D9352
:100820003D93AFE8B0E00D911D912D913C91A4E175
:10083000B1E00D931D932D933C9394E0A4E1B1E0BE
:100840000E94580BAFE8B0E00D911D912D913C91A5
:10085000A8E1B1E00D931D932D933C9395E0A8E1A1
:10086000B1E00E94780BA4E1B1E00D911D912D91B2
:100870003C91A8E1B1E04D915D916D917C910E9418
:10088000080BA4E1B1E00D931D932D933D93AFE8C8
:10089000B0E00D911D912D913C91A4E1B1E04D91FD
:1008A0005D916D917C910E949F0BA4E1B1E00D934D
:1008B0001D932D933D93ACE0B1E00D911D912D91D1
:1008C0003C91A8E1B1E00D931D932D933C939BE0E7
:1008D000A8E1B1E00E94780BA8E1B1E00D911D9173
:1008E0002D913C9143E050E060E070E00E940D0BE0
:1008F000A8E1B1E00D931D932D933D93ACE0B1E0E1
:100900000D911D912D913C91A8E1B1E0AD90BD906C
:10091000A0E7B0E0AA0CBB1CAA0CBB1CAA0DBB1D17
:100920004D915D916D917C910E949F0BA8E1B1E08A
:100930000D931D932D933D93A4E1B1E00D911D9175
:100940002D913C91A8E1B1E04D915D916D917C912B
:100950000E94080BA4E1B1E00D931D932D933D93EC
:10096000A4E1B1E00D911D912D913C91A3E9B0E07E
:100970004D915D916D917C910E949F0BA3E9B0E038
:100980000D931D932D933D9300916500073011F059
:100990000C94E504AFE8B0E04D915D916D917C91D0
:1009A000A7E9B0E00D911D912D913C910417150719
:1009B0002607370711F40C94E504ABE6B0E08C9100
:1009C00081608C938FEF80936C00A5E6B0E08C91F2
:1009D0008F5F8C9310F40C9454030E94A60280E065
:1009E0008093650000916500073018F011F00C94B9
:1009F0001305A5E6B0E0AD90BB24AFE8B0E0AA0DCA
:100A0000BB1D8C91A5E6B0E0AD90BB24A4EAB0E09C
:100A1000AA0DBB1D8C93A5E6B0E08C918F5F8C93E3
:100A200010F40C94F204089580E080936B0080E051
:100A30008093800080E08093810080E08093650057
:100A400000916500073018F011F00C94390580E032
:100A5000A5E6B0E0AD90BB24A4EAB0E0AA0DBB1DB2
:100A60008C93A5E6B0E08C918F5F8C9310F40C947E
:100A70002005009185000A3418F011F00C9442050D
:100A80000C94470588E480936F000C946E05033442
:100A900018F011F00C944E050C94530580E48093EB
:100AA0006F000C946E050A3318F011F00C945A057F
:100AB0000C945F0582E380936F000C946E05033302
:100AC00018F011F00C9466050C946B0588E0809387
:100AD0006F000C946E0580E080936F0080E080933F
:100AE0006500009165000A3118F011F00C9494052E
:100AF000A5E6B0E0AD90BB24A4E8B0E0AA0DBB1D14
:100B00008C91D2018C9381E00E94350B0E940F06DC
:100B1000229681E00E94310BA5E6B0E08C918F5FB8
:100B20008C9310F40C9471058BE180936500009117
:100B300065000E3118F011F00C94F00580918100E1
:100B4000D2018C9381E00E94350B0E940F06229601
:100B500081E00E94310B80918100D2018C9381E071
:100B60000E94350B0E940F06229681E00E94310BF5
:100B7000A5E6B0E0AD90BB24A4E8B0E0AA0DBB1D93
:100B80008C9180938100A5E6B0E0AD90BB24A4E8F1
:100B9000B0E0AA0DBB1D4C91A0E8B0E0AD90BB2425
:100BA000A4EAB0E0AA0DBB1D0C91041711F40C943B
:100BB000DE05ABE6B0E08C9181608C93A0E8B0E0FC
:100BC0008C918F5F8C93A0E8B0E08C9187708C93B0
:100BD000A5E6B0E08C918F5F8C9310F40C94970590
:100BE00080E080936500009165000F3318F011F0EC
:100BF0000C940E068DE0D2018C9381E00E94350B9F
:100C00000E940F06229681E00E94310BA5E6B0E01B
:100C10008C918F5F8C9310F40C94F3050895A0E8E9
:100C2000B0E0AD90BB24A4EAB0E0AA0DBB1D0C91CE
:100C3000A881B9814C910427A0E8B0E0AD90BB2415
:100C4000A4EAB0E0AA0DBB1D0C93A0E8B0E0AD9003
:100C5000BB24A4EAB0E0AA0DBB1D8C91ACE1B1E0CD
:100C60008D9388278C9394E0ACE1B1E00E946D0BEA
:100C7000AFE6B0E00D911127ACE1B1E04D915C9190
:100C8000040F151FACE1B1E00D931C93ACE1B1E092
:100C9000AD90BD90ACEAB0E0AA0DBB1D8C918093E5
:100CA0008200A0E8B0E0AD90BB24A4EAB0E0AA0DB9
:100CB000BB1D0D9111274FE050E004231523ACE13B
:100CC000B1E00D931C93ACE1B1E00D911C91005F7C
:100CD0001F4FACE1B1E00D931C93AFE6B0E00D9176
:100CE0001127ACE1B1E04D915C91040F151FACE10F
:100CF000B1E00D931C93ACE1B1E0AD90BD90ACEAD6
:100D0000B0E0AA0DBB1D8C918093830000918300FD
:100D100040918200040FA3E8B0E00C93A3E8B0E098
:100D20008C9180958C93A3E8B0E08C91ACE1B1E01C
:100D30008D9388278C9391E0A3E8B0E00E94450B47
:100D400097E0ACE1B1E00E946D0B0091830040910F
:100D50001C01042BA3E8B0E00C9300918300A88150
:100D6000B9814C91040FA3E8B0E00C93A3E8B0E084
:100D70008C91ACE1B1E08D9388278C9391E0A3E84E
:100D8000B0E00E94450B97E0ACE1B1E00E946D0B32
:100D90000091830040911C01042BA3E8B0E00C9368
:100DA000A3E8B0E08C91ACE1B1E08D9388278C93FF
:100DB00094E0A3E8B0E00E94650B94E0ACE1B1E000
:100DC0000E944D0B0091830040911C01042BA3E86D
:100DD000B0E00C93A0E8B0E08C918F5F8C93A0E81A
:100DE000B0E08C9187708C93A0E8B0E0AD90BB240C
:100DF000A4EAB0E0AA0DBB1D0C914091830004272A
:100E0000A0E8B0E0AD90BB24A4EAB0E0AA0DBB1D01
:100E10000C93089580E08093FC0180E0809365004E
:100E200000916500073018F011F00C94290780E05C
:100E3000A5E6B0E0AD90BB24A4EAB0E0AA0DBB1DCE
:100E40008C93A5E6B0E08C918F5F8C9310F40C949A
:100E5000100780E080936500009165000A3118F06A
:100E600011F00C944F07A5E6B0E0AD90BB24A4E8C8
:100E7000B0E0AA0DBB1D8C91D2018C9381E00E9441
:100E8000350B0E94BA07229681E00E94310BA5E63D
:100E9000B0E08C918F5F8C9310F40C942C078BE155
:100EA00080936500009165000E3118F011F00C94EC
:100EB0009A078091FC01D2018C9381E00E94350B4E
:100EC0000E94BA07229681E00E94310B8091FC01BA
:100ED000D2018C9381E00E94350B0E94BA072296C2
:100EE00081E00E94310BA5E6B0E0AD90BB24A4E800
:100EF000B0E0AA0DBB1D8C918093FC01A5E6B0E08B
:100F0000AD90BB24A4E8B0E0AA0DBB1D4C910091AC
:100F1000AB00041711F40C949207ABE6B0E08C918F
:100F200081608C93A5E6B0E08C918F5F8C9310F478
:100F30000C94520780E080936500009165000F33A8
:100F400018F011F00C94B9078091A300D2018C9392
:100F500081E00E94350B0E94BA07229681E00E9430
:100F6000310BA5E6B0E08C918F5F8C9310F40C945C
:100F70009D070895A881B9818C918093000280E03B
:100F80008093800000918000043018F011F00C94E0
:100F90009608A0E8B0E0AD90BB24A4EAB0E0AA0DAA
:100FA000BB1D0C914FE30423A2E8B0E00C93A2E830
:100FB000B0E0AD90BB24A0E2B1E0AA0DBB1D0C9146
:100FC000A2E8B0E0AD90BB24A8EBB1E0AA0DBB1D38
:100FD0004C910427A2E8B0E00C93009100024091EC
:100FE0008200040FA3E8B0E00C9300918300A0E816
:100FF000B0E0AD90BB24A5EAB0E0AA0DBB1D4C91BA
:10100000041BA3E8B0E00C93A0E8B0E0AD90BB24D3
:10101000A4EAB0E0AA0DBB1D0C91A0E8B0E0AD9031
:10102000BB24A5EAB0E0AA0DBB1D4C91041BA1E0B6
:10103000B2E00C9300910102409100020427A1E06C
:10104000B2E00C93A1E0B2E00D911127A3E8B0E06B
:101050004D9155270E943B0BAEEFB1E00D931C93D1
:10106000AEEFB1E00D911C914FEF50E0042315233A
:10107000AEE1B1E00D931C93A0E8B0E0AD90BB24CD
:10108000A6EAB0E0AA0DBB1D0C9140911E010427F9
:10109000A0E8B0E0AD90BB24A6EAB0E0AA0DBB1D6D
:1010A0000C93AEEFB1E08D919C91AEE1B1E08D93E8
:1010B0009C9398E0AEE1B1E00E946D0BA0E8B0E037
:1010C000AD90BB24A7EAB0E0AA0DBB1D0C914091E6
:1010D0001E01040FA0E8B0E0AD90BB24A7EAB0E089
:1010E000AA0DBB1D0C93809100028093FD0191E03D
:1010F000A0E0B2E00E94450B97E0ADEFB1E00E94A6
:10110000650B009100024091FD01042BA0E0B2E0CC
:101110000C93A0E0B2E08C91875B8C93A0E8B0E0E8
:101120008C918E5F8C9310F40C94C207AAEAB0E005
:101130000D911127ABEAB0E04D9155270E943B0B72
:10114000AEEFB1E00D931C930091FE014FEF04232D
:10115000A0E0B2E00C93009100024091A400040FC3
:10116000A0E0B2E00C934091A400009100020417AB
:1011700010F00C94C008A0E0B2E08C918F5F8C93CB
:101180000091000249E3040FA4EAB0E00C9398E058
:10119000AEEFB1E00E946D0B0091FE014091A50001
:1011A000040FA0E0B2E00C934091A5000091000272
:1011B000041710F00C94E108A0E0B2E08C918F5F6E
:1011C0008C93009100024FE8040FA5EAB0E00C9365
:1011D000089581EE80936800A6E6B0E08D919C9121
:1011E000A8EFB1E08D939C930E941B0B0E946C0CA6
:1011F00081E08A9382E08A9388E08A9381E08A93EF
:10120000A8E6B0E0E7E386E0E8940E94B90B00911D
:101210006B00003011F00C944F0980E08093650062
:1012200000916500073018F011F00C944D09A5E607
:10123000B0E0AD90BB24A4EAB0E0AA0DBB1DBA9308
:10124000AA930E9459022296A6E6B0E08D919C9145
:10125000A8EFB1E08D939C930E941B0B0E946C0C35
:1012600081E08A9382E08A9388E08A9381E08A937E
:10127000A5E6B0E0AD90BB24A4EAB0E0AA0DBB1D8A
:10128000E7E386E0E8940E94B90BA5E6B0E08C9114
:101290008F5F8C9310F40C9410090C947F0980E0FC
:1012A0008093650000916500073018F011F00C94F0
:1012B0007F098FEF80936800A6E6B0E08D919C9146
:1012C000A8EFB1E08D939C930E941B0B0E946C0CC5
:1012D00081E08A9382E08A9388E08A9381E08A930E
:1012E000A8E6B0E0E7E386E0E8940E94B90BA5E643
:1012F000B0E08C918F5F8C9310F40C9452090E9493
:10130000CB09089580E080936500A881B9814C9154
:1013100000916500041718F011F00C94C2090E94A6
:101320008C0AA8E6B0E00E94850B0C920E94890A04
:10133000A8E6B0E0BA93AA930E9459022296A6E6C4
:10134000B0E08D919C91A8EFB1E08D939C930E94A9
:101350001B0B0E946C0C81E08A9382E08A9388E0E8
:101360008A9381E08A93A8E6B0E0E7E386E0E89418
:101370000E94B90BA5E6B0E08C918F5F8C9310F4BE
:101380000C94850900916E00053010F00C94CA0988
:101390000E94CB09089586EF80936800A6E6B0E02E
:1013A0008D919C91A8EFB1E08D939C930E941B0BB3
:1013B0000E946C0C81E08A9382E08A9388E08A9391
:1013C00081E08A93A8E6B0E0E7E386E0E8940E9433
:1013D000B90B8FEF80936800A6E6B0E08D919C91E9
:1013E000A8EFB1E08D939C930E941B0B0E946C0CA4
:1013F00081E08A9382E08A9388E08A9381E08A93ED
:10140000A8E6B0E0E7E386E0E8940E94B90B08950F
:101410003FFA1125050001B0023B364D590280818B
:101420007C00000000000000000000000000000040
:101430000000788E17CE7B5AD52D9B0078800B77D5
:1014400050DA8598DF007AD820205441432D4D4F43
:101450004445202020484156452046554E203A29F3
:101460007AD82020534B592D4D4F444520202048F9
:101470004156452046554E203A297AD820585445A1
:10148000412D4D4F4445202020484156452046558A
:101490004E203A297AD820534B59392D4D4F444587
:1014A000202020484156452046554E203A297A8032
:1014B000202020202020202020202020202020202C
:1014C00020202020202020207AD85448495320432F
:1014D00048414E4E454C20495320424C4F434B45CA
:1014E00044202323232323232323232323232323AE
:1014F00023232843294E454F3735333020323031AE
:101500003923232323232323232323232323232395
:1015100023238E2E9F2E0895E82DF92D089505D0B2
:101520000E943B0B00FC0CD008950024E89457FF68
:1015300002C009D0689400F80BD010F80124089577
:1015400002D009D00895509540954F5F5F4F0895A0
:10155000E89417FF0895009510950F5F1F4F68944A
:10156000089500FC05D0089530D005D001F8F9CFDA
:1015700037D03FD00895842F952FA62FB72FE8940A
:10158000452B462B472B11F468940895402F512F7B
:10159000622F732F0027112722273327F0E2440FF1
:1015A000551F661F771F001F111F221F331F081BA7
:1015B000190B2A0B3B0B416028F4080F191F2A1F37
:1015C0003B1F4E7FFA9559F708950024E89477FF62
:1015D00002C006D0689400F809D010F801240895DC
:1015E00012D04F5F5F4F6F4F7F4F0895E89437FFE2
:1015F000089500951095209530950F5F1F4F2F4F40
:101600003F4F689408954095509560957095089562
:101610000427152726273727089504231523262373
:10162000372308953197F1F70895689462F8089583
:10163000E89462F808958D9187FB16F48FEF01C04E
:1016400088278D938C9308950D911D912D913C9138
:1016500008953C932E931E930E930895481A590AA9
:101660000895481A8827580A089599275A924A9245
:10167000480E591E08950F92B801469F8001479F5A
:10168000100D569F100D0F900895903029F08C91F9
:10169000880F9A95E9F78C930895903041F00D9159
:1016A0001C91000F111F9A95E1F71C930E9308955A
:1016B000903051F00E94240B000F111F221F331F86
:1016C0009A95D1F70C94290B0895903029F08C91BC
:1016D00086959A95E9F78C930895903041F00D9195
:1016E0001C91169507959A95E1F71C930E93089512
:1016F000903051F00E94240B369527951795079549
:101700009A95D1F70C94290B0895C895319600202D
:10171000089591E0882321F08894991F8A95E9F72C
:10172000892F909508950F938F9308E09927881F2C
:1017300008F493950A95D9F78F910F910895040FA6
:10174000151F261F371F0895041B150B260B370B7B
:101750000895E199FECFEEBBFFBB3196089591E06D
:1017600001C092E0F6DFE09A8DB38D939A95D1F7A0
:101770000895CFDFFF27008009220082E3950080D3
:1017800009220082082F692FEA9549918D911881CD
:101790001730C1F41981103031F4806880952A81A6
:1017A000285F992726C0113049F40E94930B90FDC1
:1017B000806880952A81275F99271BC0B4DF90FF3E
:1017C0008068F7CF1981103029F480952A81275F2E
:1017D00099270FC0113041F40E94930B80952A8104
:1017E000265F9095917005C09EDF80952A81265FC7
:1017F0009170089416F028F401C018F00080002AB7
:1018000003C000800622000000825BD05AD096956B
:1018100087952A9579F74A9509F0B8CF239651D044
:10182000089577DFFF27008009220082E39500807A
:10183000092200823297082F692F4991342F18818D
:10184000173049F41981103019F42A81295F0BC02F
:101850002A81285F08C01981103019F42A81285F75
:1018600002C02A81275F522F0080002216F019F053
:10187000FBCF09F4F9CF25D024D023D08894008061
:10188000002209F008942A9519F087959795F4CFCE
:101890005A3028F05950991F881F5A95E1F70EF4D5
:1018A00080951881173009F48F778D93303031F49B
:1018B0008D3029F688278C93239608954A95E1F375
:1018C000BECF8F939F938091F8019091F90101977A
:1018D000F1F79F918F91089500E519E726E330E035
:1018E000A8EFB1E04D915D916D917C910E94B40A99
:1018F000A8EFB1E04D935D936D937D93A8EFB1E0B8
:101900000D911D912D913C914AE250E060E070E014
:101910000E94A40BA8EFB1E00D931D932D933D936E
:10192000A8EFB1E00D911D912D913C9148E050E060
:1019300060E070E00E94B40AA8EFB1E04D935D93BF
:061940006D937D930895F4
:00000001FF
