:100000000C94240018950000189500001895000025
:10001000189500001895000018950000189500002C
:10002000189500001895000018950000189500001C
:10003000189500001895000018950000189500000C
:1000400018950000189500008FE58DBFC8E3E0E229
:100050004E2E84E08EBFD4E0F4E05F2EA89584B7E6
:10006000082E877F84BF88E1992781BD91BDEEEF7F
:10007000F3E0A0E6B0E088278D933197E9F7662496
:1000800080E895E2A6E6B0E08D939C9381E090E055
:10009000ACE6B0E08D939C9380E080936500009186
:1000A00065000F3018F011F00C947100ACE6B0E070
:1000B000ED91FC91A5E6B0E0AD90BB24A1E7B0E0E6
:1000C000AA0DBB1D91E00E94C50BACE6B0E00E94FA
:1000D0009B0AA5E6B0E08C918F5F8C9310F40C9492
:1000E0004F0080E080936500009165000F3518F0A7
:1000F00011F00C949600ACE6B0E0ED91FC91A5E611
:10010000B0E0AD90BB24ADEAB0E0AA0DBB1D91E01C
:100110000E94C50BACE6B0E00E949B0AA5E6B0E0E9
:100120008C918F5F8C9310F40C94740080E080931A
:10013000650000916500073D18F011F00C94BB00BC
:10014000ACE6B0E0ED91FC91A5E6B0E0AD90BB244B
:10015000A1E2B1E0AA0DBB1D91E00E94C50BACE687
:10016000B0E00E949B0AA5E6B0E08C918F5F8C9373
:1001700010F40C9499000E94F80280E090E0ACE644
:10018000B0E08D939C9385E080936F00E8E2F4E10A
:100190000E94950A8FE0D2018C9381E00E94480B67
:1001A0000E948E09229681E00E94440B80E0809399
:1001B0006F0080E080936A00A6E6B0E08D919C918C
:1001C000A9EFB1E08D939C930E942E0B0E947F0CAF
:1001D00081E08A9382E08A9388E08A93A0E6B0E087
:1001E00085E08A93E7E386E0E8940E94240C00917E
:1001F0006100013D11F00C949D0181ED8093680038
:10020000A6E6B0E08D919C91A9EFB1E08D939C930F
:100210000E942E0B0E947F0C81E08A9382E08A93D9
:1002200088E08A9381E08A93A8E6B0E0E7E386E07D
:10023000E8940E94CC0B80E08093650000916500FB
:100240000F3118F011F00C945B01A6E6B0E08D912F
:100250009C91A9EFB1E08D939C930E942E0B0E947C
:100260007F0C81E08A9382E08A9388E08A93A5E6F6
:10027000B0E0AD90BB24A5E8B0E0AA0DBB1D81E0C5
:100280008A93E7E386E0E8940E94240CA5E6B0E0B8
:10029000AD90BB24A5E8B0E0AA0DBB1DBA93AA930C
:1002A0000E9462022296A5E6B0E08C918F5F8C934B
:1002B00010F40C941E0100918500083F11F00C947D
:1002C000660183E080936E000C94810100918B00A5
:1002D000003211F00C94710180E080936E000C9458
:1002E0008101033611F00C947A0181E080936E0055
:1002F0000C9481010C3011F00C94810182E0809308
:100300006E0000916E00003011F00C9489010E9483
:10031000200500916E00013011F00C9491010E94B3
:10032000410300916E00023011F00C9499010E947B
:1003300016070E94D7090C945E02013E11F00C943E
:10034000CD0100916E00033010F00C94AB010E94BF
:10035000F5080C94CB0100918A00053811F00C943B
:10036000B701EAE4F4E10E94950A0C94BF01013D53
:1003700011F00C94BF01E4E5F4E10E94950A88E0D5
:10038000D2018C9381E00E94480B0E948E09229634
:1003900081E00E94440B0C945E02013C11F00C942D
:1003A000E301E8E3F4E10E94950A80E1D2018C9335
:1003B00081E00E94480B0E948E09229681E00E94F3
:1003C000440B0C945E02013A11F00C945C024091D3
:1003D0006E0000916F00041711F40C94F9018091E4
:1003E0006E0080936F0080E090E0ACE6B0E08D930B
:1003F0009C93ACE6B0E00D911C91053050E01507E0
:1004000081E008F080E08F9300916B00003081E084
:1004100009F080E09F918923882311F40C943E0217
:1004200000916E00003011F00C941A02EEE5F4E138
:100430000E94950A00916E00013011F00C94240284
:10044000E2E9F4E10E94950A00916E00023011F099
:100450000C942E02ECEAF4E10E94950A00916E00E1
:10046000033011F00C943802E8E7F4E10E94950A99
:10047000ACE6B0E00E949B0A0C944E0200916B0027
:10048000003011F40C944A02E0EEF4E10E94950A67
:100490000C944E02E6ECF4E10E94950A89E1D20147
:1004A0008C9381E00E94480B0E948E09229681E085
:1004B0000E94440B0C945E020E94D7090C94DC004D
:1004C000F894FFCFA881B9810C914AEA0423AAE6E7
:1004D000B0E00C9391E0AAE6B0E00E94780BA8810E
:1004E000B9818C9185758C9391E0A881B9810E9426
:1004F000580B00916A00A881B9814C91042BA88106
:10050000B9810C93A881B9810C914CEC0423AAE623
:10051000B0E00C9392E0AAE6B0E00E94780BA881CC
:10052000B9818C9183738C9392E0A881B9810E94E8
:10053000580B00916A00A881B9814C91042BA881C5
:10054000B9810C93A881B9818C9182958C93A881F3
:10055000B9818C918C939FEF89278C93089500919A
:1005600090008091930080939000A3E9B0E00C93F9
:10057000009191008091920080939100A2E9B0E0F7
:100580000C93009194008091970080939400A7E9C8
:10059000B0E00C93009195008091960080939500B7
:1005A000A6E9B0E00C930091980080919B008093A5
:1005B0009800ABE9B0E00C930091990080919A000B
:1005C00080939900AAE9B0E00C9300919C0080917F
:1005D0009F0080939C00AFE9B0E00C9300919D00D8
:1005E00080919E0080939D00AEE9B0E00C93089549
:1005F000009171008091740080937100A4E7B0E0D5
:100600000C93009172008091730080937200A3E7B5
:10061000B0E00C9300917500809178008093750094
:10062000A8E7B0E00C93009176008091770080936A
:100630007600A7E7B0E00C930091790080917C00F0
:1006400080937900ACE7B0E00C9300917A00809140
:100650007B0080937A00ABE7B0E00C9300917D00C3
:100660008091800080937D00A0E8B0E00C93009121
:100670007E0080917F0080937E00AFE7B0E00C9316
:10068000089580E080936B000E94AF0200E010E0CC
:1006900020E030E0ADE0B1E00D931D932D933C934D
:1006A00009EB19E727E33EE9A1E1B1E00D931D93C2
:1006B0002D933C9380E080936500009165000F319D
:1006C00018F011F00C94F904A4E9B0E00D911D911B
:1006D0002D913C91A5E1B1E00D931D932D933C9399
:1006E00094E0A5E1B1E00E946B0BA4E9B0E00D91AC
:1006F0001D912D913C91A9E1B1E00D931D932D9396
:100700003C9395E0A9E1B1E00E948B0BA5E1B1E03B
:100710000D911D912D913C91A9E1B1E04D915D911B
:100720006D917C910E941B0BA5E1B1E00D931D938F
:100730002D933D93A5E1B1E00D911D912D913C913B
:10074000A4E9B0E04D915D916D917C910E94B20B56
:10075000A5E1B1E00D931D932D933D93ADE0B1E084
:100760000D911D912D913C9143E050E060E070E0CF
:100770000E94200BA9E1B1E00D931D932D933D93B1
:10078000ADE0B1E00D911D912D913C91A9E1B1E059
:10079000AD90BD90A1E7B0E0AA0CBB1CAA0CBB1C9D
:1007A000AA0DBB1D4D915D916D917C910E94B20B84
:1007B000A9E1B1E00D931D932D933D93A5E1B1E027
:1007C0000D911D912D913C91A9E1B1E04D915D916B
:1007D0006D917C910E941B0BA5E1B1E00D931D93DF
:1007E0002D933D93A0E9B0E00D911D912D913C9189
:1007F000A5E1B1E04D915D916D917C910E94B20BAC
:10080000A0E9B0E00D931D932D933D93ADE0B1E0D1
:100810000D911D912D913C91A1E1B1E04D915D9122
:100820006D917C910E94B20BADE0B1E00D931D93F0
:100830002D933D93A0E9B0E00D911D912D913C9138
:10084000A5E1B1E00D931D932D933C9394E0A5E1B8
:10085000B1E00E946B0BA0E9B0E00D911D912D91CC
:100860003C91A9E1B1E00D931D932D933C9395E04C
:10087000A9E1B1E00E948B0BA5E1B1E00D911D91C2
:100880002D913C91A9E1B1E04D915D916D917C91EB
:100890000E941B0BA5E1B1E00D931D932D933D9399
:1008A000A0E9B0E00D911D912D913C91A5E1B1E041
:1008B0004D915D916D917C910E94B20BA5E1B1E0EB
:1008C0000D931D932D933D93ADE0B1E00D911D91DE
:1008D0002D913C91A9E1B1E00D931D932D933C9393
:1008E0009BE0A9E1B1E00E948B0BA9E1B1E00D9181
:1008F0001D912D913C9143E050E060E070E00E943A
:10090000200BA9E1B1E00D931D932D933D93ADE034
:10091000B1E00D911D912D913C91A9E1B1E0AD9017
:10092000BD90A1E7B0E0AA0CBB1CAA0CBB1CAA0D91
:10093000BB1D4D915D916D917C910E94B20BA9E11F
:10094000B1E00D931D932D933D93A5E1B1E00D9181
:100950001D912D913C91A9E1B1E04D915D916D9179
:100960007C910E941B0BA5E1B1E00D931D932D938B
:100970003D93A5E1B1E00D911D912D913C91A4E92C
:10098000B0E04D915D916D917C910E94B20BA4E914
:10099000B0E00D931D932D933D93009165000730BA
:1009A00011F00C94F104A0E9B0E04D915D916D91CE
:1009B0007C91A8E9B0E00D911D912D913C91041717
:1009C00015072607370711F40C94F104ABE6B0E0E5
:1009D0008C9181608C938FEF90E0ACE6B0E08D93CA
:1009E0009C93A5E6B0E08C918F5F8C9310F40C94EF
:1009F0005D030E94AF0280E0809365000091650076
:100A0000073018F011F00C941F05A5E6B0E0AD908A
:100A1000BB24A0E9B0E0AA0DBB1D8C91A5E6B0E017
:100A2000AD90BB24A5EAB0E0AA0DBB1D8C93A5E652
:100A3000B0E08C918F5F8C9310F40C94FE040895B9
:100A400080E080936B0080E08093810080E0809361
:100A5000820080E08093650000916500073018F007
:100A600011F00C94450580E0A5E6B0E0AD90BB2404
:100A7000A5EAB0E0AA0DBB1D8C93A5E6B0E08C9171
:100A80008F5F8C9310F40C942C05009186000A342F
:100A900018F011F00C944E050C94530588E48093E3
:100AA00070000C947A05033418F011F00C945A0578
:100AB0000C945F0580E4809370000C947A050A33EF
:100AC00018F011F00C9466050C946B0582E380938A
:100AD00070000C947A05033318F011F00C94720531
:100AE0000C94770588E0809370000C947A0580E080
:100AF0008093700080E080936500009165000A316A
:100B000018F011F00C94A005A5E6B0E0AD90BB2460
:100B1000A5E8B0E0AA0DBB1D8C91D2018C9381E0B9
:100B20000E94480B0E941B06229681E00E94440B03
:100B3000A5E6B0E08C918F5F8C9310F40C947D054A
:100B40008BE180936500009165000E3118F011F083
:100B50000C94FC0580918200D2018C9381E00E946C
:100B6000480B0E941B06229681E00E94440B809154
:100B70008200D2018C9381E00E94480B0E941B06E8
:100B8000229681E00E94440BA5E6B0E0AD90BB2424
:100B9000A5E8B0E0AA0DBB1D8C9180938200A5E66C
:100BA000B0E0AD90BB24A5E8B0E0AA0DBB1D4C9110
:100BB000A1E8B0E0AD90BB24A5EAB0E0AA0DBB1D52
:100BC0000C91041711F40C94EA05ABE6B0E08C919B
:100BD00081608C93A1E8B0E08C918F5F8C93A1E849
:100BE000B0E08C9187708C93A5E6B0E08C918F5F1C
:100BF0008C9310F40C94A30580E080936500009121
:100C000065000F3318F011F00C941A068DE0D20134
:100C10008C9381E00E94480B0E941B06229681E083
:100C20000E94440BA5E6B0E08C918F5F8C9310F48A
:100C30000C94FF050895A1E8B0E0AD90BB24A5EAAF
:100C4000B0E0AA0DBB1D0C91A881B9814C9104277D
:100C5000A1E8B0E0AD90BB24A5EAB0E0AA0DBB1DB1
:100C60000C93A1E8B0E0AD90BB24A5EAB0E0AA0DDA
:100C7000BB1D8C91ADE1B1E08D9388278C9394E0FE
:100C8000ADE1B1E00E94800BA0E7B0E00D9111272B
:100C9000ADE1B1E04D915C91040F151FADE1B1E004
:100CA0000D931C93ADE1B1E0AD90BD90ADEAB0E025
:100CB000AA0DBB1D8C9180938300A1E8B0E0AD909C
:100CC000BB24A5EAB0E0AA0DBB1D0D9111274FE092
:100CD00050E004231523ADE1B1E00D931C93ADE189
:100CE000B1E00D911C91005F1F4FADE1B1E00D939C
:100CF0001C93A0E7B0E00D911127ADE1B1E04D915B
:100D00005C91040F151FADE1B1E00D931C93ADE1B3
:100D1000B1E0AD90BD90ADEAB0E0AA0DBB1D8C91E5
:100D2000809384000091840040918300040FA4E824
:100D3000B0E00C93A4E8B0E08C9180958C93A4E88B
:100D4000B0E08C91ADE1B1E08D9388278C9391E078
:100D5000A4E8B0E00E94580B97E0ADE1B1E00E943A
:100D6000800B0091840040911D01042BA4E8B0E0A9
:100D70000C9300918400A881B9814C91040FA4E8E0
:100D8000B0E00C93A4E8B0E08C91ADE1B1E08D93BC
:100D900088278C9391E0A4E8B0E00E94580B97E07C
:100DA000ADE1B1E00E94800B0091840040911D01F3
:100DB000042BA4E8B0E00C93A4E8B0E08C91ADE182
:100DC000B1E08D9388278C9394E0A4E8B0E00E9472
:100DD000780B94E0ADE1B1E00E94600B00918400DB
:100DE00040911D01042BA4E8B0E00C93A1E8B0E011
:100DF0008C918F5F8C93A1E8B0E08C9187708C937D
:100E0000A1E8B0E0AD90BB24A5EAB0E0AA0DBB1DFF
:100E10000C91409184000427A1E8B0E0AD90BB2480
:100E2000A5EAB0E0AA0DBB1D0C93089580E0809365
:100E3000FD0180E08093650000916500073018F0A7
:100E400011F00C94350780E0A5E6B0E0AD90BB242E
:100E5000A5EAB0E0AA0DBB1D8C93A5E6B0E08C918D
:100E60008F5F8C9310F40C941C0780E080936500D6
:100E7000009165000A3118F011F00C945B07A5E6AB
:100E8000B0E0AD90BB24A5E8B0E0AA0DBB1D8C91ED
:100E9000D2018C9381E00E94480B0E94C6072296E3
:100EA00081E00E94440BA5E6B0E08C918F5F8C93AB
:100EB00010F40C9438078BE1809365000091650075
:100EC0000E3118F011F00C94A6078091FD01D201AB
:100ED0008C9381E00E94480B0E94C607229681E015
:100EE0000E94440B8091FD01D2018C9381E00E940D
:100EF000480B0E94C607229681E00E94440BA5E69B
:100F0000B0E0AD90BB24A5E8B0E0AA0DBB1D8C916C
:100F10008093FD01A5E6B0E0AD90BB24A5E8B0E06C
:100F2000AA0DBB1D4C910091AC00041711F40C9458
:100F30009E07ABE6B0E08C9181608C93A5E6B0E0B3
:100F40008C918F5F8C9310F40C945E0780E08093FB
:100F50006500009165000F3318F011F00C94C5077F
:100F60008091A400D2018C9381E00E94480B0E94E2
:100F7000C607229681E00E94440BA5E6B0E08C9162
:100F80008F5F8C9310F40C94A9070895A881B98100
:100F90008C918093010280E0809381000091810018
:100FA000043018F011F00C94A208A1E8B0E0AD9064
:100FB000BB24A5EAB0E0AA0DBB1D0C914FE30423AE
:100FC000A3E8B0E00C93A3E8B0E0AD90BB24A1E2AD
:100FD000B1E0AA0DBB1D0C91A3E8B0E0AD90BB241D
:100FE000A9EBB1E0AA0DBB1D4C910427A3E8B0E02A
:100FF0000C930091010240918300040FA4E8B0E03B
:101000000C9300918400A1E8B0E0AD90BB24A6EA67
:10101000B0E0AA0DBB1D4C91041BA4E8B0E00C93FA
:10102000A1E8B0E0AD90BB24A5EAB0E0AA0DBB1DDD
:101030000C91A1E8B0E0AD90BB24A6EAB0E0AA0D07
:10104000BB1D4C91041BA2E0B2E00C930091020284
:10105000409101020427A2E0B2E00C93A2E0B2E0CA
:101060000D911127A4E8B0E04D9155270E944E0B39
:10107000AFEFB1E00D931C93AFEFB1E00D911C9178
:101080004FEF50E004231523AFE1B1E00D931C9323
:10109000A1E8B0E0AD90BB24A7EAB0E0AA0DBB1D6B
:1010A0000C9140911F010427A1E8B0E0AD90BB2452
:1010B000A7EAB0E0AA0DBB1D0C93AFEFB1E08D9194
:1010C0009C91AFE1B1E08D939C9398E0AFE1B1E0EA
:1010D0000E94800BA1E8B0E0AD90BB24A8EAB0E08C
:1010E000AA0DBB1D0C9140911F01040FA1E8B0E0B7
:1010F000AD90BB24A8EAB0E0AA0DBB1D0C93809173
:1011000001028093FE0191E0A1E0B2E00E94580B41
:1011100097E0AEEFB1E00E94780B009101024091A0
:10112000FE01042BA1E0B2E00C93A1E0B2E08C91AF
:10113000875B8C93A1E8B0E08C918E5F8C9310F468
:101140000C94CE07ABEAB0E00D911127ACEAB0E009
:101150004D9155270E944E0BAFEFB1E00D931C93BC
:101160000091FF014FEF0423A1E0B2E00C93009146
:1011700001024091A500040FA1E0B2E00C93409160
:10118000A50000910102041710F00C94CC08A1E016
:10119000B2E08C918F5F8C930091010249E3040FC0
:1011A000A5EAB0E00C9398E0AFEFB1E00E94800BAD
:1011B0000091FF014091A600040FA1E0B2E00C9362
:1011C0004091A60000910102041710F00C94ED0864
:1011D000A1E0B2E08C918F5F8C93009101024FE807
:1011E000040FA6EAB0E00C93089581EE80936800A6
:1011F000A6E6B0E08D919C91A9EFB1E08D939C9310
:101200000E942E0B0E947F0C81E08A9382E08A93D9
:1012100088E08A9381E08A93A8E6B0E0E7E386E07D
:10122000E8940E94CC0B00916B00003011F00C94FC
:101230005B0980E08093650000916500073018F03D
:1012400011F00C945909A5E6B0E0AD90BB24A5EAD5
:10125000B0E0AA0DBB1DBA93AA930E946202229627
:10126000A6E6B0E08D919C91A9EFB1E08D939C939F
:101270000E942E0B0E947F0C81E08A9382E08A9369
:1012800088E08A9381E08A93A5E6B0E0AD90BB2424
:10129000A5EAB0E0AA0DBB1DE7E386E0E8940E9452
:1012A000CC0BA5E6B0E08C918F5F8C9310F40C947E
:1012B0001C090C948B0980E0809365000091650007
:1012C000073018F011F00C948B098FEF80936800B1
:1012D000A6E6B0E08D919C91A9EFB1E08D939C932F
:1012E0000E942E0B0E947F0C81E08A9382E08A93F9
:1012F00088E08A9381E08A93A8E6B0E0E7E386E09D
:10130000E8940E94CC0BA5E6B0E08C918F5F8C93A3
:1013100010F40C945E090E94D709089580E0809330
:101320006500A881B9814C9100916500041718F0FF
:1013300011F00C94CE090E94980AA8E6B0E00E9431
:10134000980B0C920E94950AA8E6B0E0BA93AA9373
:101350000E9462022296A6E6B0E08D919C91A9EFD0
:10136000B1E08D939C930E942E0B0E947F0C81E034
:101370008A9382E08A9388E08A9381E08A93A8E640
:10138000B0E0E7E386E0E8940E94CC0BA5E6B0E08D
:101390008C918F5F8C9310F40C94910900916F00E5
:1013A000053010F00C94D6090E94D709089586EFF5
:1013B00080936800A6E6B0E08D919C91A9EFB1E022
:1013C0008D939C930E942E0B0E947F0C81E08A9348
:1013D00082E08A9388E08A9381E08A93A8E6B0E06D
:1013E000E7E386E0E8940E94CC0B8FEF80936800DF
:1013F000A6E6B0E08D919C91A9EFB1E08D939C930E
:101400000E942E0B0E947F0C81E08A9382E08A93D7
:1014100088E08A9381E08A93A8E6B0E0E7E386E07B
:10142000E8940E94CC0B08953FFA1125050001B005
:10143000023B364D590280817C0000000000000014
:1014400000000000000000000000788E17CE7B5ADC
:10145000D52D9B0078800B7750DA8598DF007AD8FD
:1014600020205441432D4D4F4445202020484156D3
:10147000452046554E203A297AD82020534B592DE5
:101480004D4F4445202020484156452046554E208A
:101490003A297AD820585445412D4D4F44452020B3
:1014A00020484156452046554E203A297AD82053A7
:1014B0004B59392D4D4F4445202020484156452059
:1014C00046554E203A297A802020202020202020B6
:1014D000202020202020202020202020202020200C
:1014E0007AD854484953204348414E4E454C2049F0
:1014F0005320424C4F434B45442023232323232393
:10150000232323232323232323232843294E454F07
:10151000373533302032303139232323232323231B
:10152000232323232323232323238E2E9F2E089537
:10153000E82DF92D0895ED91FC91EF5FFF4FFC939D
:10154000EE93089505D00E944E0B00FC0CD0089538
:101550000024E89457FF02C009D0689400F80BD02B
:1015600010F80124089502D009D0089550954095AF
:101570004F5F5F4F0895E89417FF08950095109509
:101580000F5F1F4F6894089500FC05D0089530D078
:1015900005D001F8F9CF37D03FD00895842F952F8B
:1015A000A62FB72FE894452B462B472B11F46894B0
:1015B0000895402F512F622F732F002711272227C4
:1015C0003327F0E2440F551F661F771F001F111FBE
:1015D000221F331F081B190B2A0B3B0B416028F4F9
:1015E000080F191F2A1F3B1F4E7FFA9559F70895C0
:1015F0000024E89477FF02C006D0689400F809D070
:1016000010F80124089512D04F5F5F4F6F4F7F4F46
:101610000895E89437FF089500951095209530952A
:101620000F5F1F4F2F4F3F4F68940895409550957F
:101630006095709508950427152726273727089564
:10164000042315232623372308953197F1F70895AE
:10165000689462F80895E89462F808958D9187FB84
:1016600016F48FEF01C088278D938C9308950D9108
:101670001D912D913C9108953C932E931E930E93B2
:101680000895481A590A0895481A8827580A08954B
:1016900099275A924A92480E591E08950F92B801FE
:1016A000469F8001479F100D569F100D0F90089583
:1016B000903029F08C91880F9A95E9F78C930895D2
:1016C000903041F00D911C91000F111F9A95E1F798
:1016D0001C930E930895903051F00E94370B000F29
:1016E000111F221F331F9A95D1F70C943C0B0895BC
:1016F000903029F08C9186959A95E9F78C9308950E
:10170000903041F00D911C91169507959A95E1F74F
:101710001C930E930895903051F00E94370B36952C
:101720002795179507959A95D1F70C943C0B08953A
:10173000C89531960020089591E0882321F088947F
:10174000991F8A95E9F7892F909508950F938F93A4
:1017500008E09927881F08F493950A95D9F78F9187
:101760000F910895040F151F261F371F0895041B9E
:10177000150B260B370B0895E199FECFEEBBFFBB8F
:101780003196089591E001C092E0F6DFE09A8DB3C2
:101790008D939A95D1F70895CFDFFF270080092216
:1017A0000082E395008009220082082F692FEA95C4
:1017B00049918D9118811730C1F41981103031F49D
:1017C000806880952A81285F992726C0113049F4C6
:1017D0000E94A60B90FD806880952A81275F99273B
:1017E0001BC0B4DF90FF8068F7CF1981103029F457
:1017F00080952A81275F99270FC0113041F40E94FC
:10180000A60B80952A81265F9095917005C09EDF7A
:1018100080952A81265F9170089416F028F401C003
:1018200018F00080002A03C0008006220000008219
:101830005BD05AD0969587952A9579F74A9509F005
:10184000B8CF239651D0089577DFFF270080092273
:101850000082E3950080092200823297082F692FC9
:101860004991342F1881173049F41981103019F437
:101870002A81295F0BC02A81285F08C01981103096
:1018800019F42A81285F02C02A81275F522F008025
:10189000002216F019F0FBCF09F4F9CF25D024D09F
:1018A00023D088940080002209F008942A9519F02A
:1018B00087959795F4CF5A3028F05950991F881F73
:1018C0005A95E1F70EF480951881173009F48F7757
:1018D0008D93303031F48D3029F688278C93239600
:1018E00008954A95E1F3BECF8F939F938091F901BC
:1018F0009091FA010197F1F79F918F91089500E57A
:1019000019E726E330E0A9EFB1E04D915D916D91CB
:101910007C910E94C70AA9EFB1E04D935D936D934E
:101920007D93A9EFB1E00D911D912D913C914AE27B
:1019300050E060E070E00E94B70BA9EFB1E00D93BA
:101940001D932D933D93A9EFB1E00D911D912D9124
:101950003C9148E050E060E070E00E94C70AA9EFC7
:0C196000B1E04D935D936D937D9308956D
:00000001FF
