:100000000C94240018950000189500001895000025
:10001000189500001895000018950000189500002C
:10002000189500001895000018950000189500001C
:10003000189500001895000018950000189500000C
:1000400018950000189500008FE58DBFC8E3E0E229
:100050004E2E84E08EBFD4E0F4E05F2EA89584B7E6
:10006000082E877F84BF88E1992781BD91BDEEEF7F
:10007000F3E0A0E6B0E088278D933197E9F7662496
:1000800080E895E2A6E6B0E08D939C9381E090E055
:10009000ACE6B0E08D939C9380E080936500009186
:1000A00065000F3018F011F00C947100ACE6B0E070
:1000B000ED91FC91A5E6B0E0AD90BB24A1E7B0E0E6
:1000C000AA0DBB1D91E00E94D90BACE6B0E00E94E6
:1000D000AF0AA5E6B0E08C918F5F8C9310F40C947E
:1000E0004F0080E080936500009165000F3518F0A7
:1000F00011F00C949600ACE6B0E0ED91FC91A5E611
:10010000B0E0AD90BB24ADEAB0E0AA0DBB1D91E01C
:100110000E94D90BACE6B0E00E94AF0AA5E6B0E0C1
:100120008C918F5F8C9310F40C94740080E080931A
:10013000650000916500073D18F011F00C94BB00BC
:10014000ACE6B0E0ED91FC91A5E6B0E0AD90BB244B
:10015000A1E2B1E0AA0DBB1D91E00E94D90BACE673
:10016000B0E00E94AF0AA5E6B0E08C918F5F8C935F
:1001700010F40C9499000E94070380E090E0ACE634
:10018000B0E08D939C9385E080936F00E6E4F4E10A
:100190000E94A90A8FE0D2018C9381E00E945C0B3F
:1001A0000E949D09229681E00E94580B80E0809376
:1001B0006F0080E080936A00A6E6B0E08D919C918C
:1001C000A9EFB1E08D939C930E94420B0E94930C87
:1001D00081E08A9382E08A9388E08A93A0E6B0E087
:1001E00085E08A93E7E386E0E8940E94380C00916A
:1001F0006100013D11F00C949D0181ED8093680038
:10020000A6E6B0E08D919C91A9EFB1E08D939C930F
:100210000E94420B0E94930C81E08A9382E08A93B1
:1002200088E08A9381E08A93A8E6B0E0E7E386E07D
:10023000E8940E94E00B80E08093650000916500E7
:100240000F3118F011F00C945B01A6E6B0E08D912F
:100250009C91A9EFB1E08D939C930E94420B0E9468
:10026000930C81E08A9382E08A9388E08A93A5E6E2
:10027000B0E0AD90BB24A5E8B0E0AA0DBB1D81E0C5
:100280008A93E7E386E0E8940E94380CA5E6B0E0A4
:10029000AD90BB24A5E8B0E0AA0DBB1DBA93AA930C
:1002A0000E9471022296A5E6B0E08C918F5F8C933C
:1002B00010F40C941E0100918500083F11F00C947D
:1002C000660183E080936E000C94810100918B00A5
:1002D000003211F00C94710180E080936E000C9458
:1002E0008101033611F00C947A0181E080936E0055
:1002F0000C9481010C3011F00C94810182E0809308
:100300006E0000916E00003011F00C9489010E9483
:100310002F0500916E00013011F00C9491010E94A4
:10032000500300916E00023011F00C9499010E946C
:1003300025070E94E6090C946D02013E11F00C9411
:10034000DC0100916E00033010F00C94AB010E94B0
:1003500004090C94DA0100918A00053811F00C941C
:10036000BA0180E080936B00E8E6F4E10E94A90AFC
:100370000C94CE01013D11F00C94C70180E08093F4
:100380006B00E2E7F4E10E94A90A0C94CE0181E03F
:1003900080936B00ECE7F4E10E94A90A88E0D201A7
:1003A0008C9381E00E945C0B0E949D09229681E063
:1003B0000E94580B0C946D02013C11F00C94F20158
:1003C000E6E5F4E10E94A90A80E1D2018C9381E084
:1003D0000E945C0B0E949D09229681E00E94580BAE
:1003E0000C946D02013A11F00C946B0240916E0076
:1003F00000916F00041711F40C94080280916E00B4
:1004000080936F0080E090E0ACE6B0E08D939C9329
:10041000ACE6B0E00D911C91053050E0150781E08D
:1004200008F080E08F9300916B00003081E009F0CC
:1004300080E09F918923882311F40C944D02009150
:100440006E00003011F00C942902E6E8F4E10E94FD
:10045000A90A00916E00013011F00C943302EAEB0E
:10046000F4E10E94A90A00916E00023011F00C9490
:100470003D02E4EDF4E10E94A90A00916E00033010
:1004800011F00C944702E0EAF4E10E94A90AACE6FC
:10049000B0E00E94AF0A0C945D0200916B00003046
:1004A00011F40C945902E8E0F5E10E94A90A0C94B9
:1004B0005D02EEEEF4E10E94A90A89E1D2018C937B
:1004C00081E00E945C0B0E949D09229681E00E94BF
:1004D000580B0C946D020E94E6090C94DC00F89411
:1004E000FFCFA881B9810C914AEA0423AAE6B0E0C3
:1004F0000C9391E0AAE6B0E00E948C0BA881B98130
:100500008C9185758C9391E0A881B9810E946C0BC8
:1005100000916A00A881B9814C91042BA881B9810E
:100520000C93A881B9810C914CEC0423AAE6B0E0AD
:100530000C9392E0AAE6B0E00E948C0BA881B981EE
:100540008C9183738C9392E0A881B9810E946C0B8B
:1005500000916A00A881B9814C91042BA881B981CE
:100560000C93A881B9818C9182958C93A881B981D3
:100570008C918C939FEF89278C9308950091900024
:100580008091930080939000A3E9B0E00C930091D8
:1005900091008091920080939100A2E9B0E00C93C9
:1005A000009194008091970080939400A7E9B0E0B7
:1005B0000C93009195008091960080939500A6E998
:1005C000B0E00C930091980080919B00809398007C
:1005D000ABE9B0E00C930091990080919A00809370
:1005E0009900AAE9B0E00C9300919C0080919F00D3
:1005F00080939C00AFE9B0E00C9300919D00809146
:100600009E0080939D00AEE9B0E00C9308950091A8
:1006100071008091740080937100A4E7B0E00C93A6
:10062000009172008091730080937200A3E7B0E0A4
:100630000C93009175008091780080937500A8E775
:10064000B0E00C9300917600809177008093760063
:10065000A7E7B0E00C930091790080917C00809333
:100660007900ACE7B0E00C9300917A0080917B00B8
:1006700080937A00ABE7B0E00C9300917D0080910D
:10068000800080937D00A0E8B0E00C9300917E0094
:1006900080917F0080937E00AFE7B0E00C930895D7
:1006A00080E080936B000E94BE0200E010E020E03A
:1006B00030E0ADE0B1E00D931D932D933C9309EB39
:1006C00019E727E33EE9A1E1B1E00D931D932D93D6
:1006D0003C9380E080936500009165000F3118F035
:1006E00011F00C940805A4E9B0E00D911D912D9135
:1006F0003C91A5E1B1E00D931D932D933C9394E0C3
:10070000A5E1B1E00E947F0BA4E9B0E00D911D913D
:100710002D913C91A9E1B1E00D931D932D933C9354
:1007200095E0A9E1B1E00E949F0BA5E1B1E00D9138
:100730001D912D913C91A9E1B1E04D915D916D919B
:100740007C910E942F0BA5E1B1E00D931D932D9399
:100750003D93A5E1B1E00D911D912D913C91A4E94E
:10076000B0E04D915D916D917C910E94C60BA5E129
:10077000B1E00D931D932D933D93ADE0B1E00D914C
:100780001D912D913C9143E050E060E070E00E94AB
:10079000340BA9E1B1E00D931D932D933D93ADE092
:1007A000B1E00D911D912D913C91A9E1B1E0AD9089
:1007B000BD90A1E7B0E0AA0CBB1CAA0CBB1CAA0D03
:1007C000BB1D4D915D916D917C910E94C60BA9E17D
:1007D000B1E00D931D932D933D93A5E1B1E00D91F3
:1007E0001D912D913C91A9E1B1E04D915D916D91EB
:1007F0007C910E942F0BA5E1B1E00D931D932D93E9
:100800003D93A0E9B0E00D911D912D913C91A5E1A2
:10081000B1E04D915D916D917C910E94C60BA0E974
:10082000B0E00D931D932D933D93ADE0B1E00D919C
:100830001D912D913C91A1E1B1E04D915D916D91A2
:100840007C910E94C60BADE0B1E00D931D932D93FA
:100850003D93A0E9B0E00D911D912D913C91A5E152
:10086000B1E00D931D932D933C9394E0A5E1B1E08D
:100870000E947F0BA0E9B0E00D911D912D913C915C
:10088000A9E1B1E00D931D932D933C9395E0A9E16F
:10089000B1E00E949F0BA5E1B1E00D911D912D915A
:1008A0003C91A9E1B1E04D915D916D917C910E94E7
:1008B0002F0BA5E1B1E00D931D932D933D93A0E97E
:1008C000B0E00D911D912D913C91A5E1B1E04D91CC
:1008D0005D916D917C910E94C60BA5E1B1E00D93F5
:1008E0001D932D933D93ADE0B1E00D911D912D91A0
:1008F0003C91A9E1B1E00D931D932D933C939BE0B6
:10090000A9E1B1E00E949F0BA9E1B1E00D911D9119
:100910002D913C9143E050E060E070E00E94340B88
:10092000A9E1B1E00D931D932D933D93ADE0B1E0AE
:100930000D911D912D913C91A9E1B1E0AD90BD903B
:10094000A1E7B0E0AA0CBB1CAA0CBB1CAA0DBB1DE6
:100950004D915D916D917C910E94C60BA9E1B1E032
:100960000D931D932D933D93A5E1B1E00D911D9144
:100970002D913C91A9E1B1E04D915D916D917C91FA
:100980000E942F0BA5E1B1E00D931D932D933D9394
:10099000A5E1B1E00D911D912D913C91A4E9B0E04C
:1009A0004D915D916D917C910E94C60BA4E9B0E0E0
:1009B0000D931D932D933D9300916500073011F029
:1009C0000C940005A0E9B0E04D915D916D917C9192
:1009D000A8E9B0E00D911D912D913C9104171507E8
:1009E0002607370711F40C940005ABE6B0E08C91B4
:1009F00081608C938FEF90E0ACE6B0E08D939C9398
:100A0000A5E6B0E08C918F5F8C9310F40C946C038E
:100A10000E94BE0280E0809365000091650007306F
:100A200018F011F00C942E05A5E6B0E0AD90BB24B3
:100A3000A0E9B0E0AA0DBB1D8C91A5E6B0E0AD9099
:100A4000BB24A5EAB0E0AA0DBB1D8C93A5E6B0E0DF
:100A50008C918F5F8C9310F40C940D05089580E0B9
:100A600080936B0080E08093810080E0809382001F
:100A700080E08093650000916500073018F011F068
:100A80000C94540580E0A5E6B0E0AD90BB24A5EA47
:100A9000B0E0AA0DBB1D8C93A5E6B0E08C918F5FF2
:100AA0008C9310F40C943B05009186000A3418F0E6
:100AB00011F00C945D050C94620588E4809370003D
:100AC0000C948905033418F011F00C9469050C940A
:100AD0006E0580E4809370000C9489050A3318F049
:100AE00011F00C9475050C947A0582E380937000E4
:100AF0000C948905033318F011F00C9481050C94C3
:100B0000860588E0809370000C94890580E08093CE
:100B1000700080E080936500009165000A3118F054
:100B200011F00C94AF05A5E6B0E0AD90BB24A5E8AC
:100B3000B0E0AA0DBB1D8C91D2018C9381E00E9484
:100B40005C0B0E942A06229681E00E94580BA5E6C3
:100B5000B0E08C918F5F8C9310F40C948C058BE13A
:100B600080936500009165000E3118F011F00C942F
:100B70000B0680918200D2018C9381E00E945C0B75
:100B80000E942A06229681E00E94580B80918200E2
:100B9000D2018C9381E00E945C0B0E942A0622966F
:100BA00081E00E94580BA5E6B0E0AD90BB24A5E81B
:100BB000B0E0AA0DBB1D8C9180938200A5E6B0E049
:100BC000AD90BB24A5E8B0E0AA0DBB1D4C91A1E8F7
:100BD000B0E0AD90BB24A5EAB0E0AA0DBB1D0C911E
:100BE000041711F40C94F905ABE6B0E08C91816028
:100BF0008C93A1E8B0E08C918F5F8C93A1E8B0E07A
:100C00008C9187708C93A5E6B0E08C918F5F8C936C
:100C100010F40C94B20580E08093650000916500AB
:100C20000F3318F011F00C9429068DE0D2018C934B
:100C300081E00E945C0B0E942A06229681E00E94BD
:100C4000580BA5E6B0E08C918F5F8C9310F40C9458
:100C50000E060895A1E8B0E0AD90BB24A5EAB0E08F
:100C6000AA0DBB1D0C91A881B9814C910427A1E864
:100C7000B0E0AD90BB24A5EAB0E0AA0DBB1D0C937B
:100C8000A1E8B0E0AD90BB24A5EAB0E0AA0DBB1D81
:100C90008C91ADE1B1E08D9388278C9394E0ADE128
:100CA000B1E00E94940BA0E7B0E00D911127ADE1F7
:100CB000B1E04D915C91040F151FADE1B1E00D93D2
:100CC0001C93ADE1B1E0AD90BD90ADEAB0E0AA0DEE
:100CD000BB1D8C9180938300A1E8B0E0AD90BB2454
:100CE000A5EAB0E0AA0DBB1D0D9111274FE050E021
:100CF00004231523ADE1B1E00D931C93ADE1B1E008
:100D00000D911C91005F1F4FADE1B1E00D931C935D
:100D1000A0E7B0E00D911127ADE1B1E04D915C91FC
:100D2000040F151FADE1B1E00D931C93ADE1B1E0EF
:100D3000AD90BD90ADEAB0E0AA0DBB1D8C91809343
:100D400084000091840040918300040FA4E8B0E087
:100D50000C93A4E8B0E08C9180958C93A4E8B0E06B
:100D60008C91ADE1B1E08D9388278C9391E0A4E85C
:100D7000B0E00E946C0B97E0ADE1B1E00E94940BF3
:100D80000091840040911D01042BA4E8B0E00C9375
:100D900000918400A881B9814C91040FA4E8B0E0CF
:100DA0000C93A4E8B0E08C91ADE1B1E08D9388277D
:100DB0008C9391E0A4E8B0E00E946C0B97E0ADE169
:100DC000B1E00E94940B0091840040911D01042B1E
:100DD000A4E8B0E00C93A4E8B0E08C91ADE1B1E000
:100DE0008D9388278C9394E0A4E8B0E00E948C0B4C
:100DF00094E0ADE1B1E00E94740B00918400409159
:100E00001D01042BA4E8B0E00C93A1E8B0E08C91A4
:100E10008F5F8C93A1E8B0E08C9187708C93A1E8F0
:100E2000B0E0AD90BB24A5EAB0E0AA0DBB1D0C91CB
:100E3000409184000427A1E8B0E0AD90BB24A5EA6E
:100E4000B0E0AA0DBB1D0C93089580E08093FD01D6
:100E500080E08093650000916500073018F011F084
:100E60000C94440780E0A5E6B0E0AD90BB24A5EA71
:100E7000B0E0AA0DBB1D8C93A5E6B0E08C918F5F0E
:100E80008C9310F40C942B0780E080936500009104
:100E900065000A3118F011F00C946A07A5E6B0E07D
:100EA000AD90BB24A5E8B0E0AA0DBB1D8C91D2018A
:100EB0008C9381E00E945C0B0E94D507229681E012
:100EC0000E94580BA5E6B0E08C918F5F8C9310F4D4
:100ED0000C9447078BE180936500009165000E310B
:100EE00018F011F00C94B5078091FD01D2018C939C
:100EF00081E00E945C0B0E94D507229681E00E944F
:100F0000580B8091FD01D2018C9381E00E945C0B13
:100F10000E94D507229681E00E94580BA5E6B0E01A
:100F2000AD90BB24A5E8B0E0AA0DBB1D8C918093C9
:100F3000FD01A5E6B0E0AD90BB24A5E8B0E0AA0DA8
:100F4000BB1D4C910091AC00041711F40C94AD073B
:100F5000ABE6B0E08C9181608C93A5E6B0E08C911B
:100F60008F5F8C9310F40C946D0780E08093650084
:100F7000009165000F3318F011F00C94D4078091A4
:100F8000A400D2018C9381E00E945C0B0E94D507E3
:100F9000229681E00E94580BA5E6B0E08C918F5F0D
:100FA0008C9310F40C94B8070895A881B9818C91A2
:100FB0008093010280E080938100009181000430E1
:100FC00018F011F00C94B108A1E8B0E0AD90BB248A
:100FD000A5EAB0E0AA0DBB1D0C914FE30423A3E8E2
:100FE000B0E00C93A3E8B0E0AD90BB24A1E2B1E087
:100FF000AA0DBB1D0C91A3E8B0E0AD90BB24A9EBFA
:10100000B1E0AA0DBB1D4C910427A3E8B0E00C93FE
:101010000091010240918300040FA4E8B0E00C931A
:1010200000918400A1E8B0E0AD90BB24A6EAB0E056
:10103000AA0DBB1D4C91041BA4E8B0E00C93A1E8E1
:10104000B0E0AD90BB24A5EAB0E0AA0DBB1D0C91A9
:10105000A1E8B0E0AD90BB24A6EAB0E0AA0DBB1DAC
:101060004C91041BA2E0B2E00C930091020240916B
:1010700001020427A2E0B2E00C93A2E0B2E00D91DD
:101080001127A4E8B0E04D9155270E94620BAFEF05
:10109000B1E00D931C93AFEFB1E00D911C914FEFB8
:1010A00050E004231523AFE1B1E00D931C93A1E8B8
:1010B000B0E0AD90BB24A7EAB0E0AA0DBB1D0C9137
:1010C00040911F010427A1E8B0E0AD90BB24A7EA3E
:1010D000B0E0AA0DBB1D0C93AFEFB1E08D919C91D8
:1010E000AFE1B1E08D939C9398E0AFE1B1E00E9455
:1010F000940BA1E8B0E0AD90BB24A8EAB0E0AA0D43
:10110000BB1D0C9140911F01040FA1E8B0E0AD9010
:10111000BB24A8EAB0E0AA0DBB1D0C93809101028C
:101120008093FE0191E0A1E0B2E00E946C0B97E099
:10113000AEEFB1E00E948C0B009101024091FE01E4
:10114000042BA1E0B2E00C93A1E0B2E08C91875BAC
:101150008C93A1E8B0E08C918E5F8C9310F40C948A
:10116000DD07ABEAB0E00D911127ACEAB0E04D919C
:1011700055270E94620BAFEFB1E00D931C930091D5
:10118000FF014FEF0423A1E0B2E00C9300910102B4
:101190004091A500040FA1E0B2E00C934091A5009E
:1011A00000910102041710F00C94DB08A1E0B2E0FA
:1011B0008C918F5F8C930091010249E3040FA5EAA3
:1011C000B0E00C9398E0AFEFB1E00E94940B009177
:1011D000FF014091A600040FA1E0B2E00C93409102
:1011E000A60000910102041710F00C94FC08A1E085
:1011F000B2E08C918F5F8C93009101024FE8040F55
:10120000A6EAB0E00C93089581EE80936800A6E60C
:10121000B0E08D919C91A9EFB1E08D939C930E94D9
:10122000420B0E94930C81E08A9382E08A9388E0CB
:101230008A9381E08A93A8E6B0E0E7E386E0E89449
:101240000E94E00B00916B00003011F00C946A09D1
:1012500080E08093650000916500073018F011F080
:101260000C946809A5E6B0E0AD90BB24A5EAB0E017
:10127000AA0DBB1DBA93AA930E9471022296A6E6FC
:10128000B0E08D919C91A9EFB1E08D939C930E9469
:10129000420B0E94930C81E08A9382E08A9388E05B
:1012A0008A9381E08A93A5E6B0E0AD90BB24A5EADD
:1012B000B0E0AA0DBB1DE7E386E0E8940E94E00BD6
:1012C000A5E6B0E08C918F5F8C9310F40C942B0901
:1012D0000C949A0980E080936500009165000730C6
:1012E00018F011F00C949A098FEF80936800A6E62D
:1012F000B0E08D919C91A9EFB1E08D939C930E94F9
:10130000420B0E94930C81E08A9382E08A9388E0EA
:101310008A9381E08A93A8E6B0E0E7E386E0E89468
:101320000E94E00BA5E6B0E08C918F5F8C9310F4E7
:101330000C946D090E94E609089580E08093650091
:10134000A881B9814C9100916500041718F011F043
:101350000C94DD090E94AC0AA8E6B0E00E94AC0B38
:101360000C920E94A90AA8E6B0E0BA93AA930E9440
:1013700071022296A6E6B0E08D919C91A9EFB1E0B2
:101380008D939C930E94420B0E94930C81E08A9360
:1013900082E08A9388E08A9381E08A93A8E6B0E0AD
:1013A000E7E386E0E8940E94E00BA5E6B0E08C91CC
:1013B0008F5F8C9310F40C94A00900916F0005309E
:1013C00010F00C94E5090E94E609089586EF8093D9
:1013D0006800A6E6B0E08D919C91A9EFB1E08D93F5
:1013E0009C930E94420B0E94930C81E08A9382E0BE
:1013F0008A9388E08A9381E08A93A8E6B0E0E7E3E5
:1014000086E0E8940E94E00B8FEF80936800A6E6E8
:10141000B0E08D919C91A9EFB1E08D939C930E94D7
:10142000420B0E94930C81E08A9382E08A9388E0C9
:101430008A9381E08A93A8E6B0E0E7E386E0E89447
:101440000E94E00B08953FFA1125050001B0023B10
:10145000364D590280817C00000000000000000031
:101460000000000000000000788E17CE7B5AD52DBA
:101470009B0078800B7750DA8598DF0078000000B9
:101480000000000000007AD820205441432D4D4F29
:101490004445202020484156452046554E203A29B3
:1014A0007AD82020534B592D4D4F444520202048B9
:1014B0004156452046554E203A297AD82058544561
:1014C000412D4D4F4445202020484156452046554A
:1014D0004E203A297AD820534B59392D4D4F444547
:1014E000202020484156452046554E203A297A80F2
:1014F00020202020202020202020202020202020EC
:1015000020202020202020207AD8544849532043EE
:1015100048414E4E454C20495320424C4F434B4589
:10152000442023232323232323232323232323236D
:1015300023232843294E454F37353330203230316D
:101540003923232323232323232323232323232355
:1015500023238E2E9F2E0895E82DF92D0895ED91C9
:10156000FC91EF5FFF4FFC93EE93089505D00E942E
:10157000620B00FC0CD008950024E89457FF02C0D1
:1015800009D0689400F80BD010F80124089502D017
:1015900009D00895509540954F5F5F4F0895E894A6
:1015A00017FF0895009510950F5F1F4F68940895D9
:1015B00000FC05D0089530D005D001F8F9CF37D020
:1015C0003FD00895842F952FA62FB72FE894452B51
:1015D000462B472B11F468940895402F512F622F0A
:1015E000732F0027112722273327F0E2440F551FBE
:1015F000661F771F001F111F221F331F081B190BA7
:101600002A0B3B0B416028F4080F191F2A1F3B1FB0
:101610004E7FFA9559F708950024E89477FF02C0A9
:1016200006D0689400F809D010F80124089512D06B
:101630004F5F5F4F6F4F7F4F0895E89437FF0895D6
:1016400000951095209530950F5F1F4F2F4F3F4FFE
:101650006894089540955095609570950895042775
:1016600015272627372708950423152326233723F4
:1016700008953197F1F70895689462F80895E89411
:1016800062F808958D9187FB16F48FEF01C08827CB
:101690008D938C9308950D911D912D913C910895FA
:1016A0003C932E931E930E930895481A590A089559
:1016B000481A8827580A089599275A924A92480E3C
:1016C000591E08950F92B801469F8001479F100D43
:1016D000569F100D0F900895903029F08C91880F2F
:1016E0009A95E9F78C930895903041F00D911C91F3
:1016F000000F111F9A95E1F71C930E9308959030F7
:1017000051F00E944B0B000F111F221F331F9A959F
:10171000D1F70C94500B0895903029F08C91869558
:101720009A95E9F78C930895903041F00D911C91B2
:10173000169507959A95E1F71C930E9308959030AE
:1017400051F00E944B0B36952795179507959A9562
:10175000D1F70C94500B0895C89531960020089548
:1017600091E0882321F08894991F8A95E9F7892FC1
:10177000909508950F938F9308E09927881F08F498
:1017800093950A95D9F78F910F910895040F151F1E
:10179000261F371F0895041B150B260B370B0895C2
:1017A000E199FECFEEBBFFBB3196089591E001C0F9
:1017B00092E0F6DFE09A8DB38D939A95D1F7089574
:1017C000CFDFFF27008009220082E39500800922F5
:1017D0000082082F692FEA9549918D911881173061
:1017E000C1F41981103031F4806880952A81285F16
:1017F000992726C0113049F40E94BA0B90FD8068E9
:1018000080952A81275F99271BC0B4DF90FF8068ED
:10181000F7CF1981103029F480952A81275F992705
:101820000FC0113041F40E94BA0B80952A81265FC7
:101830009095917005C09EDF80952A81265F9170FA
:10184000089416F028F401C018F00080002A03C0A4
:1018500000800622000000825BD05AD096958795C2
:101860002A9579F74A9509F0B8CF239651D0089573
:1018700077DFFF27008009220082E395008009229C
:1018800000823297082F692F4991342F1881173021
:1018900049F41981103019F42A81295F0BC02A817B
:1018A000285F08C01981103019F42A81285F02C00E
:1018B0002A81275F522F0080002216F019F0FBCFFB
:1018C00009F4F9CF25D024D023D0889400800022B9
:1018D00009F008942A9519F087959795F4CF5A3016
:1018E00028F05950991F881F5A95E1F70EF48095FA
:1018F0001881173009F48F778D93303031F48D30A3
:1019000029F688278C93239608954A95E1F3BECF54
:101910008F939F938091F9019091FA010197F1F7CC
:101920009F918F91089500E519E726E330E0A9EF34
:10193000B1E04D915D916D917C910E94DB0AA9EF20
:10194000B1E04D935D936D937D93A9EFB1E00D915F
:101950001D912D913C914AE250E060E070E00E94C0
:10196000CB0BA9EFB1E00D931D932D933D93A9EF00
:10197000B1E00D911D912D913C9148E050E060E067
:1019800070E00E94DB0AA9EFB1E04D935D936D9387
:041990007D930895A6
:00000001FF
