:100000000CC0189518951895189518951895189569
:10001000189518951895189518958FE58DBFC8E314
:10002000E0E24E2E82E08EBFD2E0F2E05F2EEEEFF5
:10003000F1E0A0E6B0E088278D933197E9F76624D8
:1000400080E895E2A6E6B0E08D939C9381E08093F2
:100050006C0080E080936500009165000F3010F027
:1000600009F01AC0ACE6B0E0EC91FF27A5E6B0E0DD
:10007000AD90BB24A0E7B0E0AA0DBB1D91E088DAEB
:10008000ACE6B0E08C918F5F8C93A5E6B0E08C91EC
:100090008F5F8C9308F4E0CF80E08093650000913F
:1000A00065000F3510F009F01AC0ACE6B0E0EC9135
:1000B000FF27A5E6B0E0AD90BB24ACEAB0E0AA0D06
:1000C000BB1D91E065DAACE6B0E08C918F5F8C935C
:1000D000A5E6B0E08C918F5F8C9308F4E0CF80E0D0
:1000E0008093650000916500073D10F009F01AC08B
:1000F000ACE6B0E0EC91FF27A5E6B0E0AD90BB2404
:10010000A0E2B1E0AA0DBB1D91E042DAACE6B0E09E
:100110008C918F5F8C93A5E6B0E08C918F5F8C9370
:1001200008F4E0CFE9D180E080936C0085E0809313
:100130006E00E4E3F2E1FFD88FE0A42DB52D8C939F
:1001400081E0B7D902D8229681E0AFD980E08093D0
:100150006E0080E080936A00A6E6B0E08D919C91ED
:10016000A8EFB1E08D939C938AD9CADA81E08A9393
:1001700082E08A9388E08A93A0E6B0E085E08A93E3
:10018000E7E386E0E89461DA00916100013D09F05F
:1001900088C081ED80936800A6E6B0E08D919C91C7
:1001A000A8EFB1E08D939C936AD9AADA81E08A9393
:1001B00082E08A9388E08A9381E08A93A8E6B0E09F
:1001C000E7E386E0E894EBD980E080936500009156
:1001D00065000F3110F009F031C0A6E6B0E08D9156
:1001E0009C91A8EFB1E08D939C9349D989DA81E085
:1001F0008A9382E08A9388E08A93A5E6B0E0AD9086
:10020000BB24A4E8B0E0AA0DBB1D81E08A93E7E31C
:1002100086E0E8941ADAA5E6B0E0AD90BB24A4E845
:10022000B0E0AA0DBB1DBA93AA93D4D02296A5E63E
:10023000B0E08C918F5F8C9308F4C9CF009184005B
:10024000083F09F004C083E080936D0016C0009160
:100250008A00003209F004C080E080936D000DC078
:10026000033609F004C081E080936D0006C00C30B5
:1002700009F003C082E080936D0000916D000030B2
:1002800009F001C044D300916D00013009F001C0B4
:100290007CD100916D00023009F001C00AD593D7DE
:1002A00096C0013E09F021C000916D00033008F0B6
:1002B00002C0C3D619C000918900053809F004C0F6
:1002C000E6E5F2E138D806C0013D09F003C0E0E6FA
:1002D000F2E131D888E0A42DB52D8C9381E0E9D8E6
:1002E00034D7229681E0E1D872C0013C09F00EC0FB
:1002F000E4E4F2E120D880E1A42DB52D8C9381E0D7
:10030000D8D823D7229681E0D0D861C0013A09F02D
:100310005DC040916D0000916E00041709F407C0A4
:1003200080916D0080936E0080E080936C0000915E
:100330006C00053081E008F080E08F9300916B0045
:10034000003081E009F080E09F918923882309F43F
:1003500026C000916D00003009F003C0EAE6F2E12A
:10036000EAD700916D00013009F003C0EEE9F2E137
:10037000E2D700916D00023009F003C0E8EBF2E132
:10038000DAD700916D00033009F003C0E4E8F2E130
:10039000D2D7ACE6B0E08C918F5F8C930CC000910B
:1003A0006B00003009F404C0ECEEF2E1C4D703C0E6
:1003B000E2EDF2E1C0D789E1A42DB52D8C9381E067
:1003C00078D8C3D6229681E070D801C0FCD6C4CEBE
:1003D000F894FFCFA881B9810C914AEA0423AAE6D8
:1003E000B0E00C9391E0AAE6B0E087D8A881B9818B
:1003F0008C9185758C9391E0A881B98160D800912A
:100400006A00A881B9814C91042BA881B9810C9311
:10041000A881B9810C914CEC0423AAE6B0E00C93BE
:1004200092E0AAE6B0E069D8A881B9818C91837383
:100430008C9392E0A881B98142D800916A00A8818A
:10044000B9814C91042BA881B9810C93A881B98101
:100450008C9182958C93A881B9818C918C939FEF1C
:1004600089278C93089500918F008091920080934A
:100470008F00A2E9B0E00C93009190008091910070
:1004800080939000A1E9B0E00C93009193008091DB
:10049000960080939300A6E9B0E00C93009194003D
:1004A0008091950080939400A5E9B0E00C930091B1
:1004B000970080919A0080939700AAE9B0E00C938E
:1004C000009198008091990080939800A9E9B0E08C
:1004D0000C9300919B0080919E0080939B00AEE95D
:1004E000B0E00C9300919C0080919D0080939C0053
:1004F000ADE9B0E00C930895009170008091730015
:1005000080937000A3E7B0E00C930091710080919C
:10051000720080937100A2E7B0E00C930091740028
:100520008091770080937400A7E7B0E00C9300916E
:1005300075008091760080937500A6E7B0E00C937B
:100540000091780080917B0080937800ABE7B0E069
:100550000C930091790080917A0080937900AAE74A
:10056000B0E00C9300917C0080917F0080937C0030
:10057000AFE7B0E00C9300917D0080917E00809306
:100580007D00AEE7B0E00C93089580E080936B00AF
:100590006ADF00E010E020E030E0ACE0B1E00D9375
:1005A0001D932D933C9309EB19E727E33EE9A0E166
:1005B000B1E00D931D932D933C9380E080936500F3
:1005C000009165000F3110F009F07DC1A3E9B0E0A2
:1005D0000D911D912D913C91A4E1B1E00D931D93DE
:1005E0002D933C9394E0A4E1B1E07CD7A3E9B0E083
:1005F0000D911D912D913C91A8E1B1E00D931D93BA
:100600002D933C9395E0A8E1B1E08AD7A4E1B1E055
:100610000D911D912D913C91A8E1B1E04D915D911D
:100620006D917C9119D7A4E1B1E00D931D932D93A9
:100630003D93A4E1B1E00D911D912D913C91A3E971
:10064000B0E04D915D916D917C918FD7A4E1B1E0C7
:100650000D931D932D933D93ACE0B1E00D911D9151
:100660002D913C9143E050E060E070E0FAD6A8E1C3
:10067000B1E00D931D932D933D93ACE0B1E00D914E
:100680001D912D913C91A8E1B1E0AD90BD90A0E706
:10069000B0E0AA0CBB1CAA0CBB1CAA0DBB1D4D9143
:1006A0005D916D917C9161D7A8E1B1E00D931D93AF
:1006B0002D933D93A4E1B1E00D911D912D913C91BD
:1006C000A8E1B1E04D915D916D917C91C5D6A4E119
:1006D000B1E00D931D932D933D93AFE8B0E00D91E4
:1006E0001D912D913C91A4E1B1E04D915D916D91F1
:1006F0007C913BD7AFE8B0E00D931D932D933D93D4
:10070000ACE0B1E00D911D912D913C91A0E1B1E0E3
:100710004D915D916D917C9128D7ACE0B1E00D9346
:100720001D932D933D93AFE8B0E00D911D912D9158
:100730003C91A4E1B1E00D931D932D933C9394E083
:10074000A4E1B1E0CFD6AFE8B0E00D911D912D91BD
:100750003C91A8E1B1E00D931D932D933C9395E05E
:10076000A8E1B1E0DDD6A4E1B1E00D911D912D919C
:100770003C91A8E1B1E04D915D916D917C916CD679
:10078000A4E1B1E00D931D932D933D93AFE8B0E04C
:100790000D911D912D913C91A4E1B1E04D915D91A0
:1007A0006D917C91E2D6A4E1B1E00D931D932D9360
:1007B0003D93ACE0B1E00D911D912D913C91A8E1EC
:1007C000B1E00D931D932D933C939BE0A8E1B1E024
:1007D000A7D6A8E1B1E00D911D912D913C9143E088
:1007E00050E060E070E03DD6A8E1B1E00D931D93CC
:1007F0002D933D93ACE0B1E00D911D912D913C9175
:10080000A8E1B1E0AD90BD90A0E7B0E0AA0CBB1CA0
:10081000AA0CBB1CAA0DBB1D4D915D916D917C91E5
:10082000A4D6A8E1B1E00D931D932D933D93A4E1CF
:10083000B1E00D911D912D913C91A8E1B1E04D9158
:100840005D916D917C9108D6A4E1B1E00D931D936B
:100850002D933D93A4E1B1E00D911D912D913C911B
:10086000A3E9B0E04D915D916D917C917ED6A3E9B5
:10087000B0E00D931D932D933D93009165000730DB
:1008800009F01AC0AFE8B0E04D915D916D917C9197
:10089000A7E9B0E00D911D912D913C91041715072A
:1008A0002607370709F408C0ABE6B0E08C918160F9
:1008B0008C938FEF80936C00A5E6B0E08C918F5FF6
:1008C0008C9308F47DCECFDD80E0809365000091AD
:1008D0006500073010F009F019C0A5E6B0E0AD9052
:1008E000BB24AFE8B0E0AA0DBB1D8C91A5E6B0E03B
:1008F000AD90BB24A4EAB0E0AA0DBB1D8C93A5E685
:10090000B0E08C918F5F8C9308F4E1CF089580E084
:1009100080936B0080E08093800080E08093810072
:1009200080E08093650000916500073010F009F0C9
:1009300011C080E0A5E6B0E0AD90BB24A4EAB0E031
:10094000AA0DBB1D8C93A5E6B0E08C918F5F8C93B4
:1009500008F4E9CF009185000A3410F009F001C0D5
:1009600004C088E480936F001EC0033410F009F0C7
:1009700001C004C080E480936F0015C00A3310F0FA
:1009800009F001C004C082E380936F000CC0033300
:1009900010F009F001C004C088E080936F0003C02C
:1009A00080E080936F0080E0809365000091650097
:1009B0000A3110F009F019C0A5E6B0E0AD90BB24F3
:1009C000A4E8B0E0AA0DBB1D8C91A42DB52D8C938D
:1009D00081E06FD57AD0229681E067D5A5E6B0E0B8
:1009E0008C918F5F8C9308F4E1CF8BE1809365004D
:1009F000009165000E3110F009F04CC0809181002B
:100A0000A42DB52D8C9381E054D55FD0229681E042
:100A10004CD580918100A42DB52D8C9381E049D5D2
:100A200054D0229681E041D5A5E6B0E0AD90BB243C
:100A3000A4E8B0E0AA0DBB1D8C9180938100A5E6CF
:100A4000B0E0AD90BB24A4E8B0E0AA0DBB1D4C9172
:100A5000A0E8B0E0AD90BB24A4EAB0E0AA0DBB1DB5
:100A60000C91041709F405C0ABE6B0E08C918160ED
:100A70008C93A0E8B0E08C918F5F8C93A0E8B0E0FD
:100A80008C9187708C93A5E6B0E08C918F5F8C93EE
:100A900008F4AECF80E080936500009165000F33CD
:100AA00010F009F011C08DE0A42DB52D8C9381E0DC
:100AB00000D50BD0229681E0F8D4A5E6B0E08C9169
:100AC0008F5F8C9308F4E9CF0895A0E8B0E0AD9073
:100AD000BB24A4EAB0E0AA0DBB1D0C91A881B9818A
:100AE0004C910427A0E8B0E0AD90BB24A4EAB0E0AC
:100AF000AA0DBB1D0C93A0E8B0E0AD90BB24A4EA06
:100B0000B0E0AA0DBB1D8C91ACE1B1E08D938827BC
:100B10008C9394E0ACE1B1E0F8D4AFE6B0E00D9195
:100B20001127ACE1B1E04D915C91040F151FACE1D0
:100B3000B1E00D931C93ACE1B1E0AD90BD90ACEA97
:100B4000B0E0AA0DBB1D8C9180938200A0E8B0E0BC
:100B5000AD90BB24A4EAB0E0AA0DBB1D0D911127F6
:100B60004FE050E004231523ACE1B1E00D931C935A
:100B7000ACE1B1E00D911C91005F1F4FACE1B1E021
:100B80000D931C93AFE6B0E00D911127ACE1B1E0FD
:100B90004D915C91040F151FACE1B1E00D931C93D6
:100BA000ACE1B1E0AD90BD90ACEAB0E0AA0DBB1DE8
:100BB0008C91809383000091830040918200040F08
:100BC000A3E8B0E00C93A3E8B0E08C9180958C93FF
:100BD000A3E8B0E08C91ACE1B1E08D9388278C93D1
:100BE00091E0A3E8B0E06BD497E0ACE1B1E08DD444
:100BF0000091830040911C01042BA3E8B0E00C930A
:100C000000918300A881B9814C91040FA3E8B0E062
:100C10000C93A3E8B0E08C91ACE1B1E08D93882710
:100C20008C9391E0A3E8B0E04AD497E0ACE1B1E066
:100C30006CD40091830040911C01042BA3E8B0E028
:100C40000C93A3E8B0E08C91ACE1B1E08D938827E0
:100C50008C9394E0A3E8B0E050D494E0ACE1B1E030
:100C600036D40091830040911C01042BA3E8B0E02E
:100C70000C93A0E8B0E08C918F5F8C93A0E8B0E07B
:100C80008C9187708C93A0E8B0E0AD90BB24A4EA6F
:100C9000B0E0AA0DBB1D0C91409183000427A0E891
:100CA000B0E0AD90BB24A4EAB0E0AA0DBB1D0C934C
:100CB000089580E08093FC0180E0809365000091BE
:100CC0006500073010F009F011C080E0A5E6B0E043
:100CD000AD90BB24A4EAB0E0AA0DBB1D8C93A5E6A1
:100CE000B0E08C918F5F8C9308F4E9CF80E0809323
:100CF0006500009165000A3110F009F019C0A5E601
:100D0000B0E0AD90BB24A4E8B0E0AA0DBB1D8C916F
:100D1000A42DB52D8C9381E0CCD36AD0229681E0AE
:100D2000C4D3A5E6B0E08C918F5F8C9308F4E1CF3B
:100D30008BE180936500009165000E3110F009F0A1
:100D40003BC08091FC01A42DB52D8C9381E0B1D3E3
:100D50004FD0229681E0A9D38091FC01A42DB52D1E
:100D60008C9381E0A6D344D0229681E09ED3A5E661
:100D7000B0E0AD90BB24A4E8B0E0AA0DBB1D8C91FF
:100D80008093FC01A5E6B0E0AD90BB24A4E8B0E000
:100D9000AA0DBB1D4C910091AB00041709F405C0CE
:100DA000ABE6B0E08C9181608C93A5E6B0E08C91CD
:100DB0008F5F8C9308F4BFCF80E080936500009133
:100DC00065000F3310F009F012C08091A300A42D2C
:100DD000B52D8C9381E06DD30BD0229681E065D345
:100DE000A5E6B0E08C918F5F8C9308F4E8CF08956E
:100DF000A881B9818C918093000280E0809380006B
:100E000000918000043010F009F0C8C0A0E8B0E004
:100E1000AD90BB24A4EAB0E0AA0DBB1D0C914FE33A
:100E20000423A2E8B0E00C93A2E8B0E0AD90BB24AC
:100E3000A0E2B1E0AA0DBB1D0C91A2E8B0E0AD901C
:100E4000BB24A8EBB1E0AA0DBB1D4C910427A2E87E
:100E5000B0E00C930091000240918200040FA3E8DF
:100E6000B0E00C9300918300A0E8B0E0AD90BB240B
:100E7000A5EAB0E0AA0DBB1D4C91041BA3E8B0E0AD
:100E80000C93A0E8B0E0AD90BB24A4EAB0E0AA0DBA
:100E9000BB1D0C91A0E8B0E0AD90BB24A5EAB0E08A
:100EA000AA0DBB1D4C91041BA1E0B2E00C93009174
:100EB0000102409100020427A1E0B2E00C93A1E0FE
:100EC000B2E00D911127A3E8B0E04D9155275AD219
:100ED000AEEFB1E00D931C93AEEFB1E00D911C911C
:100EE0004FEF50E004231523AEE1B1E00D931C93C6
:100EF000A0E8B0E0AD90BB24A6EAB0E0AA0DBB1D0F
:100F00000C9140911E010427A0E8B0E0AD90BB24F5
:100F1000A6EAB0E0AA0DBB1D0C93AEEFB1E08D9137
:100F20009C91AEE1B1E08D939C9398E0AEE1B1E08D
:100F3000ECD2A0E8B0E0AD90BB24A7EAB0E0AA0DE7
:100F4000BB1D0C9140911E01040FA0E8B0E0AD90D4
:100F5000BB24A7EAB0E0AA0DBB1D0C938091000250
:100F60008093FD0191E0A0E0B2E0A9D297E0ADEF5F
:100F7000B1E0C3D2009100024091FD01042BA0E03A
:100F8000B2E00C93A0E0B2E08C91875B8C93A0E878
:100F9000B0E08C918E5F8C9308F432CFAAEAB0E077
:100FA0000D911127ABEAB0E04D915527EBD1AEEF93
:100FB000B1E00D931C930091FE014FEF0423A0E0DC
:100FC000B2E00C93009100024091A400040FA0E055
:100FD000B2E00C934091A40000910002041708F0C5
:100FE00005C0A0E0B2E08C918F5F8C93009100026D
:100FF00049E3040FA4EAB0E00C9398E0AEEFB1E04F
:1010000084D20091FE014091A500040FA0E0B2E05F
:101010000C934091A50000910002041708F005C050
:10102000A0E0B2E08C918F5F8C93009100024FE8BA
:10103000040FA5EAB0E00C93089581EE8093680058
:10104000A6E6B0E08D919C91A8EFB1E08D939C93C2
:1010500016D256D381E08A9382E08A9388E08A93FD
:1010600081E08A93A8E6B0E0E7E386E0E89497D2CF
:1010700000916B00003009F03BC080E08093650078
:1010800000916500073010F009F031C0A5E6B0E02E
:10109000AD90BB24A4EAB0E0AA0DBB1DBA93AA93FD
:1010A00099D92296A6E6B0E08D919C91A8EFB1E087
:1010B0008D939C93E4D124D381E08A9382E08A9338
:1010C00088E08A9381E08A93A5E6B0E0AD90BB24E6
:1010D000A4EAB0E0AA0DBB1DE7E386E0E8945FD286
:1010E000A5E6B0E08C918F5F8C9308F4C9CF2BC03C
:1010F00080E08093650000916500073010F009F0F2
:1011000022C08FEF80936800A6E6B0E08D919C919D
:10111000A8EFB1E08D939C93B2D1F2D281E08A9393
:1011200082E08A9388E08A9381E08A93A8E6B0E01F
:10113000E7E386E0E89433D2A5E6B0E08C918F5FD8
:101140008C9308F4D8CF3FD0089580E08093650059
:10115000A881B9814C9100916500041710F009F045
:101160002BC0ECD0A8E6B0E0E6D10C92E4D0A8E623
:10117000B0E0BA93AA932ED92296A6E6B0E08D915C
:101180009C91A8EFB1E08D939C9379D1B9D281E085
:101190008A9382E08A9388E08A9381E08A93A8E622
:1011A000B0E0E7E386E0E894FAD1A5E6B0E08C9100
:1011B0008F5F8C9308F4CCCF00916E00053008F05F
:1011C00001C001D0089586EF80936800A6E6B0E0E4
:1011D0008D919C91A8EFB1E08D939C9350D190D2CA
:1011E00081E08A9382E08A9388E08A9381E08A93FF
:1011F000A8E6B0E0E7E386E0E894D1D18FEF8093F2
:101200006800A6E6B0E08D919C91A8EFB1E08D93C7
:101210009C9335D175D281E08A9382E08A9388E0ED
:101220008A9381E08A93A8E6B0E0E7E386E0E89459
:10123000B6D108953FFA1125050001B0023B364DA5
:10124000590280817C0000000000000000000000C6
:10125000000000000000788E17CE7B5AD52D9B0031
:1012600078800B7750DA8598DF007AD820205441B7
:10127000432D4D4F4445202020484156452046559A
:101280004E203A297AD82020534B592D4D4F4445B2
:10129000202020484156452046554E203A297AD8EC
:1012A00020585445412D4D4F44452020204841565B
:1012B000452046554E203A297AD820534B59392D8E
:1012C0004D4F4445202020484156452046554E204C
:1012D0003A297A8020202020202020202020202031
:1012E0002020202020202020202020207AD8544890
:1012F0004953204348414E4E454C20495320424CCF
:101300004F434B45442023232323232323232323F9
:101310002323232323232843294E454F37353330B6
:101320002032303139232323232323232323232350
:101330002323232323238E2E9F2E0895E82DF92D7A
:10134000089504D01FD000FC0CD008950024E89428
:1013500057FF02C009D0689400F80BD010F80124A0
:10136000089502D009D00895509540954F5F5F4F82
:101370000895E89417FF0895009510950F5F1F4F8B
:1013800068940895752F642F55274427FF93F1E142
:10139000889405C010F4460F571F5695479517952A
:1013A0000795FA95B9F7FF91089500FC05D00895C7
:1013B00030D005D001F8F9CF37D03FD00895842F31
:1013C000952FA62FB72FE894452B462B472B11F4CA
:1013D00068940895402F512F622F732F00271127F3
:1013E00022273327F0E2440F551F661F771F001F87
:1013F000111F221F331F081B190B2A0B3B0B4160C7
:1014000028F4080F191F2A1F3B1F4E7FFA9559F722
:1014100008950024E89477FF02C006D0689400F88D
:1014200009D010F80124089512D04F5F5F4F6F4F1D
:101430007F4F0895E89437FF089500951095209503
:1014400030950F5F1F4F2F4F3F4F68940895409581
:1014500050956095709508950427152726273727FE
:101460000895042315232623372308953197F1F790
:101470000895689462F80895E89462F808958D914B
:1014800087FB16F48FEF01C088278D938C93089506
:101490000D911D912D913C9108953C932E931E9397
:1014A0000E930895481A590A0895481A8827580A29
:1014B000089599275A924A92480E591E08959030DD
:1014C00029F08C91880F9A95E9F78C9308959030C4
:1014D00041F00D911C91000F111F9A95E1F71C939B
:1014E0000E930895903041F0D3DF000F111F221F9B
:1014F000331F9A95D1F7D1CF0895903029F08C9170
:1015000086959A95E9F78C930895903041F00D9166
:101510001C91169507959A95E1F71C930E930895E3
:10152000903041F0B5DF36952795179507959A9538
:10153000D1F7B3CF0895C89531960020089591E072
:10154000882321F08894991F8A95E9F7892F90952F
:1015500008950F938F9308E09927881F08F49395B7
:101560000A95D9F78F910F910895040F151F261F23
:10157000371F0895041B150B260B370B0895E199AF
:10158000FECFEEBBFFBB3196089591E001C092E023
:10159000F6DFE09A8DB38D939A95D1F70895CFDF5A
:1015A000FF27008009220082E39500800922008243
:1015B000082F692FEA9549918D9118811730B9F458
:1015C0001981103031F4806880952A81285F99272D
:1015D00024C0113041F4BDDF90FD806880952A81E0
:1015E000275F99271AC0B5DF90FF8068F7CF198170
:1015F000103029F480952A81275F99270EC0113079
:1016000039F4A7DF80952A81265F9095917005C0F7
:10161000A0DF80952A81265F9170089416F028F447
:1016200001C018F00080002A03C0008006220000DC
:1016300000825BD05AD0969587952A9579F74A957E
:1016400009F0BACF239651D0089579DFFF270080A3
:1016500009220082E3950080092200823297082F38
:10166000692F4991342F1881173049F419811030AE
:1016700019F42A81295F0BC02A81285F08C01981CB
:10168000103019F42A81285F02C02A81275F522F67
:101690000080002216F019F0FBCF09F4F9CF25D015
:1016A00024D023D088940080002209F008942A9541
:1016B00019F087959795F4CF5A3028F05950991F13
:1016C000881F5A95E1F70EF480951881173009F4B8
:1016D0008F778D93303031F48D3029F688278C93B5
:1016E000239608954A95E1F3BECF8F939F938091FF
:1016F000F8019091F9010197F1F79F918F91089569
:1017000000E519E726E330E0A8EFB1E04D915D91E7
:101710006D917C914DDEA8EFB1E04D935D936D939B
:101720007D93A8EFB1E00D911D912D913C914AE27E
:1017300050E060E070E01EDFA8EFB1E00D931D9374
:101740002D933D93A8EFB1E00D911D912D913C910A
:1017500048E050E060E070E02BDEA8EFB1E04D9390
:081760005D936D937D930895E4
:00000001FF
