:100000000CC0189518951895189518951895189569
:10001000189518951895189518958FE58DBFC8E314
:10002000E0E24E2E82E08EBFD2E0F2E05F2EEEEFF5
:10003000F1E0A0E6B0E088278D933197E9F76624D8
:1000400080E895E2A6E6B0E08D939C9381E090E095
:10005000ACE6B0E08D939C9380E0809365000091C6
:1000600065000F3010F009F018C0ACE6B0E0ED917B
:10007000FC91A5E6B0E0AD90BB24A1E7B0E0AA0DED
:10008000BB1D91E094DAACE6B0E063D9A5E6B0E040
:100090008C918F5F8C9308F4E2CF80E080936500B1
:1000A000009165000F3510F009F018C0ACE6B0E023
:1000B000ED91FC91A5E6B0E0AD90BB24ADEAB0E0D7
:1000C000AA0DBB1D91E073DAACE6B0E042D9A5E61B
:1000D000B0E08C918F5F8C9308F4E2CF80E0809346
:1000E000650000916500073D10F009F018C0ACE60E
:1000F000B0E0ED91FC91A5E6B0E0AD90BB24A1E2AB
:10010000B1E0AA0DBB1D91E052DAACE6B0E021D916
:10011000A5E6B0E08C918F5F8C9308F4E2CFF1D12B
:1001200080E090E0ACE6B0E08D939C9385E0809316
:100130006F00E4E4F2E107D98FE0A42DB52D8C9394
:1001400081E0C6D90AD8229681E0BED980E08093AA
:100150006F0080E080936A00A6E6B0E08D919C91EC
:10016000A9EFB1E08D939C9399D9D9DA81E08A9374
:1001700082E08A9388E08A93A0E6B0E085E08A93E3
:10018000E7E386E0E89470DA00916100013D09F050
:1001900088C081ED80936800A6E6B0E08D919C91C7
:1001A000A9EFB1E08D939C9379D9B9DA81E08A9374
:1001B00082E08A9388E08A9381E08A93A8E6B0E09F
:1001C000E7E386E0E894FAD980E080936500009147
:1001D00065000F3110F009F031C0A6E6B0E08D9156
:1001E0009C91A9EFB1E08D939C9358D998DA81E066
:1001F0008A9382E08A9388E08A93A5E6B0E0AD9086
:10020000BB24A5E8B0E0AA0DBB1D81E08A93E7E31B
:1002100086E0E89429DAA5E6B0E0AD90BB24A5E835
:10022000B0E0AA0DBB1DBA93AA93D9D02296A5E639
:10023000B0E08C918F5F8C9308F4C9CF009185005A
:10024000083F09F004C083E080936E0016C000915F
:100250008B00003209F004C080E080936E000DC076
:10026000033609F004C081E080936E0006C00C30B4
:1002700009F003C082E080936E0000916E000030B0
:1002800009F001C04CD300916E00013009F001C0AB
:1002900081D100916E00023009F001C012D59BD7C8
:1002A0009BC0013E09F021C000916E00033008F0B0
:1002B00002C0CBD619C000918A00053809F004C0ED
:1002C000E6E6F2E140D806C0013D09F003C0E0E7F0
:1002D000F2E139D888E0A42DB52D8C9381E0F8D8CF
:1002E0003CD7229681E0F0D877C0013C09F00EC0DF
:1002F000E4E5F2E128D880E1A42DB52D8C9381E0CE
:10030000E7D82BD7229681E0DFD866C0013A09F002
:1003100062C040916E0000916F00041709F40AC09A
:1003200080916E0080936F0080E090E0ACE6B0E0DA
:100330008D939C93ACE6B0E00D911C91053050E09C
:10034000150781E008F080E08F9300916B0000308A
:1003500081E009F080E09F918923882309F424C07B
:1003600000916E00003009F003C0EAE7F2E1EBD73C
:1003700000916E00013009F003C0EEEAF2E1E3D72C
:1003800000916E00023009F003C0E8ECF2E1DBD727
:1003900000916E00033009F003C0E4E9F2E1D3D725
:1003A000ACE6B0E0D6D70CC000916B00003009F489
:1003B00004C0ECEFF2E1C7D703C0E2EEF2E1C3D72D
:1003C00089E1A42DB52D8C9381E082D8C6D62296E2
:1003D00081E07AD801C0FFD6BFCEF894FFCFA881C4
:1003E000B9810C914AEA0423AAE6B0E00C9391E0AB
:1003F000AAE6B0E091D8A881B9818C9185758C93DB
:1004000091E0A881B9816AD800916A00A881B98178
:100410004C91042BA881B9810C93A881B9810C91CE
:100420004CEC0423AAE6B0E00C9392E0AAE6B0E01C
:1004300073D8A881B9818C9183738C9392E0A88141
:10044000B9814CD800916A00A881B9814C91042BE4
:10045000A881B9810C93A881B9818C9182958C93E4
:10046000A881B9818C918C939FEF89278C930895F3
:10047000009190008091930080939000A3E9B0E0F8
:100480000C93009191008091920080939100A2E9D9
:10049000B0E00C93009194008091970080939400B9
:1004A000A7E9B0E00C9300919500809196008093AD
:1004B0009500A6E9B0E00C930091980080919B0014
:1004C00080939800ABE9B0E00C9300919900809183
:1004D0009A0080939900AAE9B0E00C9300919C00E7
:1004E00080919F0080939C00AFE9B0E00C93009155
:1004F0009D0080919E0080939D00AEE9B0E00C933A
:100500000895009171008091740080937100A4E7B8
:10051000B0E00C93009172008091730080937200A0
:10052000A3E7B0E00C930091750080917800809370
:100530007500A8E7B0E00C930091760080917700F9
:1005400080937600A7E7B0E00C930091790080914A
:100550007C0080937900ACE7B0E00C9300917A00C6
:1005600080917B0080937A00ABE7B0E00C93009120
:100570007D008091800080937D00A0E8B0E00C9326
:1005800000917E0080917F0080937E00AFE7B0E015
:100590000C93089580E080936B006ADF00E010E028
:1005A00020E030E0ADE0B1E00D931D932D933C933E
:1005B00009EB19E727E33EE9A1E1B1E00D931D93B3
:1005C0002D933C9380E080936500009165000F318E
:1005D00010F009F080C1A4E9B0E00D911D912D91BA
:1005E0003C91A5E1B1E00D931D932D933C9394E0D4
:1005F000A5E1B1E086D7A4E9B0E00D911D912D9160
:100600003C91A9E1B1E00D931D932D933C9395E0AE
:10061000A9E1B1E094D7A5E1B1E00D911D912D9133
:100620003C91A9E1B1E04D915D916D917C9123D711
:10063000A5E1B1E00D931D932D933D93A5E1B1E0AC
:100640000D911D912D913C91A4E9B0E04D915D91EA
:100650006D917C9199D7A5E1B1E00D931D932D93F8
:100660003D93ADE0B1E00D911D912D913C9143E0A2
:1006700050E060E070E004D7A9E1B1E00D931D9374
:100680002D933D93ADE0B1E00D911D912D913C91E5
:10069000A9E1B1E0AD90BD90A1E7B0E0AA0CBB1C10
:1006A000AA0CBB1CAA0DBB1D4D915D916D917C9157
:1006B0006BD7A9E1B1E00D931D932D933D93A5E177
:1006C000B1E00D911D912D913C91A9E1B1E04D91C9
:1006D0005D916D917C91CFD6A5E1B1E00D931D9315
:1006E0002D933D93A0E9B0E00D911D912D913C918A
:1006F000A5E1B1E04D915D916D917C9145D7A0E967
:10070000B0E00D931D932D933D93ADE0B1E00D91BD
:100710001D912D913C91A1E1B1E04D915D916D91C3
:100720007C9132D7ADE0B1E00D931D932D933D93B5
:10073000A0E9B0E00D911D912D913C91A5E1B1E0B2
:100740000D931D932D933C9394E0A5E1B1E0D9D690
:10075000A0E9B0E00D911D912D913C91A9E1B1E08E
:100760000D931D932D933C9395E0A9E1B1E0E7D65D
:10077000A5E1B1E00D911D912D913C91A9E1B1E070
:100780004D915D916D917C9176D6A5E1B1E00D938F
:100790001D932D933D93A0E9B0E00D911D912D91F6
:1007A0003C91A5E1B1E04D915D916D917C91ECD6CC
:1007B000A5E1B1E00D931D932D933D93ADE0B1E024
:1007C0000D911D912D913C91A9E1B1E00D931D93E7
:1007D0002D933C939BE0A9E1B1E0B1D6A9E1B1E052
:1007E0000D911D912D913C9143E050E060E070E04F
:1007F00047D6A9E1B1E00D931D932D933D93ADE054
:10080000B1E00D911D912D913C91A9E1B1E0AD9028
:10081000BD90A1E7B0E0AA0CBB1CAA0CBB1CAA0DA2
:10082000BB1D4D915D916D917C91AED6A9E1B1E07A
:100830000D931D932D933D93A5E1B1E00D911D9175
:100840002D913C91A9E1B1E04D915D916D917C912B
:1008500012D6A5E1B1E00D931D932D933D93A5E133
:10086000B1E00D911D912D913C91A4E9B0E04D9125
:100870005D916D917C9188D6A4E9B0E00D931D93B4
:100880002D933D9300916500073009F01DC0A0E94C
:10089000B0E04D915D916D917C91A8E9B0E00D9132
:1008A0001D912D913C91041715072607370709F470
:1008B0000BC0ABE6B0E08C9181608C938FEF90E041
:1008C000ACE6B0E08D939C93A5E6B0E08C918F5F91
:1008D0008C9308F47ACECCDD80E0809365000091A3
:1008E0006500073010F009F019C0A5E6B0E0AD9042
:1008F000BB24A0E9B0E0AA0DBB1D8C91A5E6B0E039
:10090000AD90BB24A5EAB0E0AA0DBB1D8C93A5E673
:10091000B0E08C918F5F8C9308F4E1CF089580E074
:1009200080936B0080E08093810080E08093820060
:1009300080E08093650000916500073010F009F0B9
:1009400011C080E0A5E6B0E0AD90BB24A5EAB0E020
:10095000AA0DBB1D8C93A5E6B0E08C918F5F8C93A4
:1009600008F4E9CF009186000A3410F009F001C0C4
:1009700004C088E4809370001EC0033410F009F0B6
:1009800001C004C080E48093700015C00A3310F0E9
:1009900009F001C004C082E3809370000CC00333EF
:1009A00010F009F001C004C088E08093700003C01B
:1009B00080E08093700080E0809365000091650086
:1009C0000A3110F009F019C0A5E6B0E0AD90BB24E3
:1009D000A5E8B0E0AA0DBB1D8C91A42DB52D8C937C
:1009E00081E076D57AD0229681E06ED5A5E6B0E09A
:1009F0008C918F5F8C9308F4E1CF8BE1809365003D
:100A0000009165000E3110F009F04CC08091820019
:100A1000A42DB52D8C9381E05BD55FD0229681E02B
:100A200053D580918200A42DB52D8C9381E050D5B3
:100A300054D0229681E048D5A5E6B0E0AD90BB2425
:100A4000A5E8B0E0AA0DBB1D8C9180938200A5E6BD
:100A5000B0E0AD90BB24A5E8B0E0AA0DBB1D4C9161
:100A6000A1E8B0E0AD90BB24A5EAB0E0AA0DBB1DA3
:100A70000C91041709F405C0ABE6B0E08C918160DD
:100A80008C93A1E8B0E08C918F5F8C93A1E8B0E0EB
:100A90008C9187708C93A5E6B0E08C918F5F8C93DE
:100AA00008F4AECF80E080936500009165000F33BD
:100AB00010F009F011C08DE0A42DB52D8C9381E0CC
:100AC00007D50BD0229681E0FFD4A5E6B0E08C914B
:100AD0008F5F8C9308F4E9CF0895A1E8B0E0AD9062
:100AE000BB24A5EAB0E0AA0DBB1D0C91A881B98179
:100AF0004C910427A1E8B0E0AD90BB24A5EAB0E09A
:100B0000AA0DBB1D0C93A1E8B0E0AD90BB24A5EAF3
:100B1000B0E0AA0DBB1D8C91ADE1B1E08D938827AB
:100B20008C9394E0ADE1B1E0FFD4A0E7B0E00D918B
:100B30001127ADE1B1E04D915C91040F151FADE1BE
:100B4000B1E00D931C93ADE1B1E0AD90BD90ADEA85
:100B5000B0E0AA0DBB1D8C9180938300A1E8B0E0AA
:100B6000AD90BB24A5EAB0E0AA0DBB1D0D911127E5
:100B70004FE050E004231523ADE1B1E00D931C9349
:100B8000ADE1B1E00D911C91005F1F4FADE1B1E00F
:100B90000D931C93A0E7B0E00D911127ADE1B1E0FA
:100BA0004D915C91040F151FADE1B1E00D931C93C5
:100BB000ADE1B1E0AD90BD90ADEAB0E0AA0DBB1DD6
:100BC0008C91809384000091840040918300040FF5
:100BD000A4E8B0E00C93A4E8B0E08C9180958C93ED
:100BE000A4E8B0E08C91ADE1B1E08D9388278C93BF
:100BF00091E0A4E8B0E072D497E0ADE1B1E094D424
:100C00000091840040911D01042BA4E8B0E00C93F6
:100C100000918400A881B9814C91040FA4E8B0E050
:100C20000C93A4E8B0E08C91ADE1B1E08D938827FE
:100C30008C9391E0A4E8B0E051D497E0ADE1B1E04D
:100C400073D40091840040911D01042BA4E8B0E00E
:100C50000C93A4E8B0E08C91ADE1B1E08D938827CE
:100C60008C9394E0A4E8B0E057D494E0ADE1B1E017
:100C70003DD40091840040911D01042BA4E8B0E014
:100C80000C93A1E8B0E08C918F5F8C93A1E8B0E069
:100C90008C9187708C93A1E8B0E0AD90BB24A5EA5D
:100CA000B0E0AA0DBB1D0C91409184000427A1E87F
:100CB000B0E0AD90BB24A5EAB0E0AA0DBB1D0C933B
:100CC000089580E08093FD0180E0809365000091AD
:100CD0006500073010F009F011C080E0A5E6B0E033
:100CE000AD90BB24A5EAB0E0AA0DBB1D8C93A5E690
:100CF000B0E08C918F5F8C9308F4E9CF80E0809313
:100D00006500009165000A3110F009F019C0A5E6F0
:100D1000B0E0AD90BB24A5E8B0E0AA0DBB1D8C915E
:100D2000A42DB52D8C9381E0D3D36AD0229681E097
:100D3000CBD3A5E6B0E08C918F5F8C9308F4E1CF24
:100D40008BE180936500009165000E3110F009F091
:100D50003BC08091FD01A42DB52D8C9381E0B8D3CB
:100D60004FD0229681E0B0D38091FD01A42DB52D06
:100D70008C9381E0ADD344D0229681E0A5D3A5E643
:100D8000B0E0AD90BB24A5E8B0E0AA0DBB1D8C91EE
:100D90008093FD01A5E6B0E0AD90BB24A5E8B0E0EE
:100DA000AA0DBB1D4C910091AC00041709F405C0BD
:100DB000ABE6B0E08C9181608C93A5E6B0E08C91BD
:100DC0008F5F8C9308F4BFCF80E080936500009123
:100DD00065000F3310F009F012C08091A400A42D1B
:100DE000B52D8C9381E074D30BD0229681E06CD327
:100DF000A5E6B0E08C918F5F8C9308F4E8CF08955E
:100E0000A881B9818C918093010280E08093810058
:100E100000918100043010F009F0C8C0A1E8B0E0F2
:100E2000AD90BB24A5EAB0E0AA0DBB1D0C914FE329
:100E30000423A3E8B0E00C93A3E8B0E0AD90BB249A
:100E4000A1E2B1E0AA0DBB1D0C91A3E8B0E0AD900A
:100E5000BB24A9EBB1E0AA0DBB1D4C910427A3E86C
:100E6000B0E00C930091010240918300040FA4E8CC
:100E7000B0E00C9300918400A1E8B0E0AD90BB24F9
:100E8000A6EAB0E0AA0DBB1D4C91041BA4E8B0E09B
:100E90000C93A1E8B0E0AD90BB24A5EAB0E0AA0DA8
:100EA000BB1D0C91A1E8B0E0AD90BB24A6EAB0E078
:100EB000AA0DBB1D4C91041BA2E0B2E00C93009163
:100EC0000202409101020427A2E0B2E00C93A2E0EA
:100ED000B2E00D911127A4E8B0E04D91552761D201
:100EE000AFEFB1E00D931C93AFEFB1E00D911C910A
:100EF0004FEF50E004231523AFE1B1E00D931C93B5
:100F0000A1E8B0E0AD90BB24A7EAB0E0AA0DBB1DFC
:100F10000C9140911F010427A1E8B0E0AD90BB24E3
:100F2000A7EAB0E0AA0DBB1D0C93AFEFB1E08D9125
:100F30009C91AFE1B1E08D939C9398E0AFE1B1E07B
:100F4000F3D2A1E8B0E0AD90BB24A8EAB0E0AA0DCE
:100F5000BB1D0C9140911F01040FA1E8B0E0AD90C2
:100F6000BB24A8EAB0E0AA0DBB1D0C93809101023E
:100F70008093FE0191E0A1E0B2E0B0D297E0AEEF45
:100F8000B1E0CAD2009101024091FE01042BA1E020
:100F9000B2E00C93A1E0B2E08C91875B8C93A1E866
:100FA000B0E08C918E5F8C9308F432CFABEAB0E066
:100FB0000D911127ACEAB0E04D915527F2D1AFEF7A
:100FC000B1E00D931C930091FF014FEF0423A1E0CA
:100FD000B2E00C93009101024091A500040FA1E042
:100FE000B2E00C934091A50000910102041708F0B3
:100FF00005C0A1E0B2E08C918F5F8C93009101025B
:1010000049E3040FA5EAB0E00C9398E0AFEFB1E03C
:101010008BD20091FF014091A600040FA1E0B2E045
:101020000C934091A60000910102041708F005C03E
:10103000A1E0B2E08C918F5F8C93009101024FE8A8
:10104000040FA6EAB0E00C93089581EE8093680047
:10105000A6E6B0E08D919C91A9EFB1E08D939C93B1
:101060001DD25DD381E08A9382E08A9388E08A93DF
:1010700081E08A93A8E6B0E0E7E386E0E8949ED2B8
:1010800000916B00003009F03BC080E08093650068
:1010900000916500073010F009F031C0A5E6B0E01E
:1010A000AD90BB24A5EAB0E0AA0DBB1DBA93AA93EC
:1010B00096D92296A6E6B0E08D919C91A9EFB1E079
:1010C0008D939C93EBD12BD381E08A9382E08A931A
:1010D00088E08A9381E08A93A5E6B0E0AD90BB24D6
:1010E000A5EAB0E0AA0DBB1DE7E386E0E89466D26E
:1010F000A5E6B0E08C918F5F8C9308F4C9CF2BC02C
:1011000080E08093650000916500073010F009F0E1
:1011100022C08FEF80936800A6E6B0E08D919C918D
:10112000A9EFB1E08D939C93B9D1F9D281E08A9374
:1011300082E08A9388E08A9381E08A93A8E6B0E00F
:10114000E7E386E0E8943AD2A5E6B0E08C918F5FC1
:101150008C9308F4D8CF3FD0089580E08093650049
:10116000A881B9814C9100916500041710F009F035
:101170002BC0ECD0A8E6B0E0EDD10C92E4D0A8E60C
:10118000B0E0BA93AA932BD92296A6E6B0E08D914F
:101190009C91A9EFB1E08D939C9380D1C0D281E066
:1011A0008A9382E08A9388E08A9381E08A93A8E612
:1011B000B0E0E7E386E0E89401D2A5E6B0E08C91E8
:1011C0008F5F8C9308F4CCCF00916F00053008F04E
:1011D00001C001D0089586EF80936800A6E6B0E0D4
:1011E0008D919C91A9EFB1E08D939C9357D197D2AB
:1011F00081E08A9382E08A9388E08A9381E08A93EF
:10120000A8E6B0E0E7E386E0E894D8D18FEF8093DA
:101210006800A6E6B0E08D919C91A9EFB1E08D93B6
:101220009C933CD17CD281E08A9382E08A9388E0CF
:101230008A9381E08A93A8E6B0E0E7E386E0E89449
:10124000BDD108953FFA1125050001B0023B364D8E
:10125000590280817C0000000000000000000000B6
:10126000000000000000788E17CE7B5AD52D9B0021
:1012700078800B7750DA8598DF007AD820205441A7
:10128000432D4D4F4445202020484156452046558A
:101290004E203A297AD82020534B592D4D4F4445A2
:1012A000202020484156452046554E203A297AD8DC
:1012B00020585445412D4D4F44452020204841564B
:1012C000452046554E203A297AD820534B59392D7E
:1012D0004D4F4445202020484156452046554E203C
:1012E0003A297A8020202020202020202020202021
:1012F0002020202020202020202020207AD8544880
:101300004953204348414E4E454C20495320424CBE
:101310004F434B45442023232323232323232323E9
:101320002323232323232843294E454F37353330A6
:101330002032303139232323232323232323232340
:101340002323232323238E2E9F2E0895E82DF92D6A
:101350000895ED91FC91EF5FFF4FFC93EE9308959C
:1013600004D01FD000FC0CD008950024E89457FF4F
:1013700002C009D0689400F80BD010F80124089539
:1013800002D009D00895509540954F5F5F4F089562
:10139000E89417FF0895009510950F5F1F4F68940C
:1013A0000895752F642F55274427FF93F1E1889402
:1013B00005C010F4460F571F56954795179507958A
:1013C000FA95B9F7FF91089500FC05D0089530D043
:1013D00005D001F8F9CF37D03FD00895842F952F4D
:1013E000A62FB72FE894452B462B472B11F4689472
:1013F0000895402F512F622F732F00271127222786
:101400003327F0E2440F551F661F771F001F111F7F
:10141000221F331F081B190B2A0B3B0B416028F4BA
:10142000080F191F2A1F3B1F4E7FFA9559F7089581
:101430000024E89477FF02C006D0689400F809D031
:1014400010F80124089512D04F5F5F4F6F4F7F4F08
:101450000895E89437FF08950095109520953095EC
:101460000F5F1F4F2F4F3F4F689408954095509541
:101470006095709508950427152726273727089526
:10148000042315232623372308953197F1F7089570
:10149000689462F80895E89462F808958D9187FB46
:1014A00016F48FEF01C088278D938C9308950D91CA
:1014B0001D912D913C9108953C932E931E930E9374
:1014C0000895481A590A0895481A8827580A08950D
:1014D00099275A924A92480E591E0895903029F041
:1014E0008C91880F9A95E9F78C930895903041F08C
:1014F0000D911C91000F111F9A95E1F71C930E930B
:101500000895903041F0D3DF000F111F221F331FC9
:101510009A95D1F7D1CF0895903029F08C91869586
:101520009A95E9F78C930895903041F00D911C91B4
:10153000169507959A95E1F71C930E9308959030B0
:1015400041F0B5DF36952795179507959A95D1F710
:10155000B3CF0895C89531960020089591E088236F
:1015600021F08894991F8A95E9F7892F909508951D
:101570000F938F9308E09927881F08F493950A9595
:10158000D9F78F910F910895040F151F261F371F4C
:101590000895041B150B260B370B0895E199FECF18
:1015A000EEBBFFBB3196089591E001C092E0F6DFFB
:1015B000E09A8DB38D939A95D1F70895CFDFFF27E9
:1015C000008009220082E395008009220082082F12
:1015D000692FEA9549918D9118811730B9F41981D5
:1015E000103031F4806880952A81285F992724C0C3
:1015F000113041F4BDDF90FD806880952A81275F1E
:1016000099271AC0B5DF90FF8068F7CF1981103095
:1016100029F480952A81275F99270EC0113039F46B
:10162000A7DF80952A81265F9095917005C0A0DF85
:1016300080952A81265F9170089416F028F401C0E5
:1016400018F00080002A03C00080062200000082FB
:101650005BD05AD0969587952A9579F74A9509F0E7
:10166000BACF239651D0089579DFFF270080092251
:101670000082E3950080092200823297082F692FAB
:101680004991342F1881173049F41981103019F419
:101690002A81295F0BC02A81285F08C01981103078
:1016A00019F42A81285F02C02A81275F522F008007
:1016B000002216F019F0FBCF09F4F9CF25D024D081
:1016C00023D088940080002209F008942A9519F00C
:1016D00087959795F4CF5A3028F05950991F881F55
:1016E0005A95E1F70EF480951881173009F48F7739
:1016F0008D93303031F48D3029F688278C932396E2
:1017000008954A95E1F3BECF8F939F938091F9019D
:101710009091FA010197F1F79F918F91089500E55B
:1017200019E726E330E0A9EFB1E04D915D916D91AD
:101730007C914DDEA9EFB1E04D935D936D937D9368
:10174000A9EFB1E00D911D912D913C914AE250E03D
:1017500060E070E01EDFA9EFB1E00D931D932D93C3
:101760003D93A9EFB1E00D911D912D913C9148E081
:1017700050E060E070E02BDEA9EFB1E04D935D93A7
:061780006D937D930895B6
:00000001FF
