:100000000C94240018950000189500001895000025
:10001000189500001895000018950000189500002C
:10002000189500001895000018950000189500001C
:10003000189500001895000018950000189500000C
:1000400018950000189500008FE58DBFC8E3E0E229
:100050004E2E84E08EBFD4E0F4E05F2EA89584B7E6
:10006000082E877F84BF88E1992781BD91BDEEEF7F
:10007000F3E0A0E6B0E088278D933197E9F7662496
:1000800080E895E2A6E6B0E08D939C9381E090E055
:10009000ACE6B0E08D939C9380E080936500009186
:1000A00065000F3018F011F00C947100ACE6B0E070
:1000B000ED91FC91A5E6B0E0AD90BB24A1E7B0E0E6
:1000C000AA0DBB1D91E00E94120DACE6B0E00E94AB
:1000D000D70BA5E6B0E08C918F5F8C9310F40C9455
:1000E0004F0080E080936500009165000F3518F0A7
:1000F00011F00C949600ACE6B0E0ED91FC91A5E611
:10010000B0E0AD90BB24ADEAB0E0AA0DBB1D91E01C
:100110000E94120DACE6B0E00E94D70BA5E6B0E05D
:100120008C918F5F8C9310F40C94740080E080931A
:10013000650000916500073D18F011F00C94BB00BC
:10014000ACE6B0E0ED91FC91A5E6B0E0AD90BB244B
:10015000A1E2B1E0AA0DBB1D91E00E94120DACE638
:10016000B0E00E94D70BA5E6B0E08C918F5F8C9336
:1001700010F40C9499000E941F0480E090E0ACE61B
:10018000B0E08D939C9385E080936F00ECE7F6E1FF
:100190000E94D10B8FE0D2018C9381E00E94840CED
:1001A0000E94B80A229681E00E94800C80E0809331
:1001B0006F0080E080936A00A6E6B0E08D919C918C
:1001C000A9EFB1E08D939C930E946A0C0E94CC0D24
:1001D00081E08A9382E08A9388E08A93A0E6B0E087
:1001E00085E08A93E7E386E0E8940E94710D009130
:1001F0006100013D11F00C94AE0181ED8093680027
:10020000A6E6B0E08D919C91A9EFB1E08D939C930F
:100210000E946A0C0E94CC0D81E08A9382E08A934E
:1002200088E08A9381E08A93A8E6B0E0E7E386E07D
:10023000E8940E94190D80E08093650000916500AC
:100240000F3118F011F00C945B01A6E6B0E08D912F
:100250009C91A9EFB1E08D939C930E946A0C0E943F
:10026000CC0D81E08A9382E08A9388E08A93A5E6A8
:10027000B0E0AD90BB24A5E8B0E0AA0DBB1D81E0C5
:100280008A93E7E386E0E8940E94710DA5E6B0E06A
:10029000AD90BB24A5E8B0E0AA0DBB1DBA93AA930C
:1002A0000E9489032296A5E6B0E08C918F5F8C9323
:1002B00010F40C941E0100918500083F11F00C947D
:1002C000660183E080936E000C948A01003C11F07B
:1002D0000C946F0180EC80936E000C948A01009165
:1002E0008B00003211F00C947A0180E080936E0054
:1002F0000C948A01033611F00C94830181E0809301
:100300006E000C948A010C3011F00C948A0182E08A
:1003100080936E0000916E00003011F00C949201F9
:100320000E94470600916E00013011F00C949A0172
:100330000E94680400916E00023011F00C94A2013A
:100340000E943D0800916E00003C11F00C94AA013F
:100350000E948C020E94010B0C948802013E11F055
:100360000C94ED0100916E00033011F40C94BC016B
:100370000E941F0A0C94EB0100918A00053811F0CD
:100380000C94CB0180E080936B00EEE9F6E10E94D3
:10039000D10B0C94DF01013D11F00C94D80180E0E9
:1003A00080936B00E8EAF6E10E94D10B0C94DF0128
:1003B00081E080936B00E2EBF6E10E94D10B88E0D4
:1003C000D2018C9381E00E94840C0E94B80A22968C
:1003D00081E00E94800C0C948802013C11F00C9486
:1003E0000302ECE8F6E10E94D10B80E1D2018C938C
:1003F00081E00E94840C0E94B80A229681E00E944B
:10040000800C0C948802013A11F00C948602409101
:100410006E0000916F00041711F40C941902809182
:100420006E0080936F0080E090E0ACE6B0E08D93CA
:100430009C93ACE6B0E00D911C91053050E015079F
:1004400081E008F080E08F9300916B00003081E044
:1004500009F080E09F918923882311F40C946802AD
:1004600000916E00003011F00C943A02ECEBF6E1D2
:100470000E94D10B00916E00013011F00C944402E7
:10048000E0EFF6E10E94D10B00916E00023011F016
:100490000C944E02EAE0F7E10E94D10B00916E004D
:1004A000033011F00C945802E6EDF6E10E94D10BF6
:1004B00000916E00003C11F00C946202E4E2F7E15E
:1004C0000E94D10BACE6B0E00E94D70B0C947802EE
:1004D00000916B00003011F40C947402E8E5F7E130
:1004E0000E94D10B0C947802EEE3F7E10E94D10B4D
:1004F00089E1D2018C9381E00E94840C0E94B80AA9
:10050000229681E00E94800C0C9488020E94010BCC
:100510000C94DC00F894FFCF00918700073010F0B6
:100520000C940E03A7E8B0E00D9111270150104084
:10053000ACE6B0E00D931C93ACE6B0E00D911C91DD
:1005400040E150E00E948A0CACE6B0E00D931C93B1
:10055000ACE6B0E00D911C910F5E1F4FADE1B1E034
:100560000D931C938BE080936500009165000A3128
:1005700018F011F00C940C03A5E6B0E0AD90BB248C
:10058000A5E8B0E0AA0DBB1D8C91ACE6B0E0AD9043
:10059000BD90ADEAB0E0AA0DBB1D8C93ADE1B1E01A
:1005A000ED91FC91AAE6B0E091E00E94120DACE65C
:1005B000B0E0AD90BD90ADEAB0E0AA0DBB1D4C918E
:1005C00000916A00041711F40C94F802ADE1B1E057
:1005D000ED91FC91ACE6B0E0AD90BD90ADEAB0E03D
:1005E000AA0DBB1D91E07BE70E94010D0C94FC025B
:1005F00080916F0080936E00ACE6B0E00E94D70B54
:10060000ADE1B1E00E94D70BA5E6B0E08C918F5F21
:100610008C9310F40C94B5020C948803A7E8B0E016
:100620000D91112707501040ACE6B0E00D931C93DC
:10063000ACE6B0E00D911C9140E150E00E948A0CC4
:10064000ACE6B0E00D931C93ACE6B0E00D911C91CC
:100650000F581F4FADE1B1E00D931C938BE08093D9
:100660006500009165000A3118F011F00C948803C0
:10067000A5E6B0E0AD90BB24A5E8B0E0AA0DBB1D97
:100680008C91ACE6B0E0AD90BD90A1E2B1E0AA0DD6
:10069000BB1D8C93ADE1B1E0ED91FC91AAE6B0E019
:1006A00091E00E94120DACE6B0E0AD90BD90A1E2E9
:1006B000B1E0AA0DBB1D4C9100916A00041711F422
:1006C0000C947403ADE1B1E0ED91FC91ACE6B0E0C7
:1006D000AD90BD90A1E2B1E0AA0DBB1D91E07BE71A
:1006E0000E94010D0C94780380916F0080936E003E
:1006F000ACE6B0E00E94D70BADE1B1E00E94D70BB1
:10070000A5E6B0E08C918F5F8C9310F40C943103CC
:100710000895A881B9810C914AEA0423AAE6B0E0C1
:100720000C9391E0AAE6B0E00E94B40CA881B981D4
:100730008C9185758C9391E0A881B9810E94940C6D
:1007400000916A00A881B9814C91042BA881B981DC
:100750000C93A881B9810C914CEC0423AAE6B0E07B
:100760000C9392E0AAE6B0E00E94B40CA881B98193
:100770008C9183738C9392E0A881B9810E94940C30
:1007800000916A00A881B9814C91042BA881B9819C
:100790000C93A881B9818C9182958C93A881B981A1
:1007A0008C918C939FEF89278C93089500919000F2
:1007B0008091930080939000A3E9B0E00C930091A6
:1007C00091008091920080939100A2E9B0E00C9397
:1007D000009194008091970080939400A7E9B0E085
:1007E0000C93009195008091960080939500A6E966
:1007F000B0E00C930091980080919B00809398004A
:10080000ABE9B0E00C930091990080919A0080933D
:100810009900AAE9B0E00C9300919C0080919F00A0
:1008200080939C00AFE9B0E00C9300919D00809113
:100830009E0080939D00AEE9B0E00C930895009176
:1008400071008091740080937100A4E7B0E00C9374
:10085000009172008091730080937200A3E7B0E072
:100860000C93009175008091780080937500A8E743
:10087000B0E00C9300917600809177008093760031
:10088000A7E7B0E00C930091790080917C00809301
:100890007900ACE7B0E00C9300917A0080917B0086
:1008A00080937A00ABE7B0E00C9300917D008091DB
:1008B000800080937D00A0E8B0E00C9300917E0062
:1008C00080917F0080937E00AFE7B0E00C930895A5
:1008D00080E080936B000E94D60300E010E020E0EF
:1008E00030E0ADE0B1E00D931D932D933C9309EB07
:1008F00019E727E33EE9A1E1B1E00D931D932D93A4
:100900003C9380E080936500009165000F3118F002
:1009100011F00C942006A4E9B0E00D911D912D91E9
:100920003C91A5E1B1E00D931D932D933C9394E090
:10093000A5E1B1E00E94A70CA4E9B0E00D911D91E2
:100940002D913C91A9E1B1E00D931D932D933C9322
:1009500095E0A9E1B1E00E94C70CA5E1B1E00D91DD
:100960001D912D913C91A9E1B1E04D915D916D9169
:100970007C910E94570CA5E1B1E00D931D932D933E
:100980003D93A5E1B1E00D911D912D913C91A4E91C
:10099000B0E04D915D916D917C910E94EE0CA5E1CE
:1009A000B1E00D931D932D933D93ADE0B1E00D911A
:1009B0001D912D913C9143E050E060E070E00E9479
:1009C0005C0CA9E1B1E00D931D932D933D93ADE037
:1009D000B1E00D911D912D913C91A9E1B1E0AD9057
:1009E000BD90A1E7B0E0AA0CBB1CAA0CBB1CAA0DD1
:1009F000BB1D4D915D916D917C910E94EE0CA9E122
:100A0000B1E00D931D932D933D93A5E1B1E00D91C0
:100A10001D912D913C91A9E1B1E04D915D916D91B8
:100A20007C910E94570CA5E1B1E00D931D932D938D
:100A30003D93A0E9B0E00D911D912D913C91A5E170
:100A4000B1E04D915D916D917C910E94EE0CA0E919
:100A5000B0E00D931D932D933D93ADE0B1E00D916A
:100A60001D912D913C91A1E1B1E04D915D916D9170
:100A70007C910E94EE0CADE0B1E00D931D932D939F
:100A80003D93A0E9B0E00D911D912D913C91A5E120
:100A9000B1E00D931D932D933C9394E0A5E1B1E05B
:100AA0000E94A70CA0E9B0E00D911D912D913C9101
:100AB000A9E1B1E00D931D932D933C9395E0A9E13D
:100AC000B1E00E94C70CA5E1B1E00D911D912D91FF
:100AD0003C91A9E1B1E04D915D916D917C910E94B5
:100AE000570CA5E1B1E00D931D932D933D93A0E923
:100AF000B0E00D911D912D913C91A5E1B1E04D919A
:100B00005D916D917C910E94EE0CA5E1B1E00D9399
:100B10001D932D933D93ADE0B1E00D911D912D916D
:100B20003C91A9E1B1E00D931D932D933C939BE083
:100B3000A9E1B1E00E94C70CA9E1B1E00D911D91BE
:100B40002D913C9143E050E060E070E00E945C0C2D
:100B5000A9E1B1E00D931D932D933D93ADE0B1E07C
:100B60000D911D912D913C91A9E1B1E0AD90BD9009
:100B7000A1E7B0E0AA0CBB1CAA0CBB1CAA0DBB1DB4
:100B80004D915D916D917C910E94EE0CA9E1B1E0D7
:100B90000D931D932D933D93A5E1B1E00D911D9112
:100BA0002D913C91A9E1B1E04D915D916D917C91C8
:100BB0000E94570CA5E1B1E00D931D932D933D9339
:100BC000A5E1B1E00D911D912D913C91A4E9B0E01A
:100BD0004D915D916D917C910E94EE0CA4E9B0E085
:100BE0000D931D932D933D9300916500073011F0F7
:100BF0000C941806A0E9B0E04D915D916D917C9147
:100C0000A8E9B0E00D911D912D913C9104171507B5
:100C10002607370711F40C941806ABE6B0E08C9168
:100C200081608C938FEF90E0ACE6B0E08D939C9365
:100C3000A5E6B0E08C918F5F8C9310F40C94840443
:100C40000E94D60380E08093650000916500073024
:100C500018F011F00C944606A5E6B0E0AD90BB2468
:100C6000A0E9B0E0AA0DBB1D8C91A5E6B0E0AD9067
:100C7000BB24A5EAB0E0AA0DBB1D8C93A5E6B0E0AD
:100C80008C918F5F8C9310F40C942506089580E06E
:100C900080936B0080E08093810080E080938200ED
:100CA00080E08093650000916500073018F011F036
:100CB0000C946C0680E0A5E6B0E0AD90BB24A5EAFC
:100CC000B0E0AA0DBB1D8C93A5E6B0E08C918F5FC0
:100CD0008C9310F40C945306009186000A3418F09B
:100CE00011F00C9475060C947A0688E480937000D9
:100CF0000C94A106033418F011F00C9481060C94A6
:100D0000860680E4809370000C94A1060A3318F0E4
:100D100011F00C948D060C94920682E3809370007F
:100D20000C94A106033318F011F00C9499060C945E
:100D30009E0688E0809370000C94A10680E080936A
:100D4000700080E080936500009165000A3118F022
:100D500011F00C94C706A5E6B0E0AD90BB24A5E861
:100D6000B0E0AA0DBB1D8C91D2018C9381E00E9452
:100D7000840C0E944207229681E00E94800CA5E626
:100D8000B0E08C918F5F8C9310F40C94A4068BE1EF
:100D900080936500009165000E3118F011F00C94FD
:100DA000230780918200D2018C9381E00E94840C01
:100DB0000E944207229681E00E94800C809182006E
:100DC000D2018C9381E00E94840C0E9442072296FB
:100DD00081E00E94800CA5E6B0E0AD90BB24A5E8C0
:100DE000B0E0AA0DBB1D8C9180938200A5E6B0E017
:100DF000AD90BB24A5E8B0E0AA0DBB1D4C91A1E8C5
:100E0000B0E0AD90BB24A5EAB0E0AA0DBB1D0C91EB
:100E1000041711F40C941107ABE6B0E08C918160DB
:100E20008C93A1E8B0E08C918F5F8C93A1E8B0E047
:100E30008C9187708C93A5E6B0E08C918F5F8C933A
:100E400010F40C94CA0680E0809365000091650060
:100E50000F3318F011F00C9441078DE0D2018C9300
:100E600081E00E94840C0E944207229681E00E9449
:100E7000800CA5E6B0E08C918F5F8C9310F40C94FD
:100E800026070895A1E8B0E0AD90BB24A5EAB0E044
:100E9000AA0DBB1D0C91A881B9814C910427A1E832
:100EA000B0E0AD90BB24A5EAB0E0AA0DBB1D0C9349
:100EB000A1E8B0E0AD90BB24A5EAB0E0AA0DBB1D4F
:100EC0008C91ADE1B1E08D9388278C9394E0ADE1F6
:100ED000B1E00E94BC0CA0E7B0E00D911127ADE19C
:100EE000B1E04D915C91040F151FADE1B1E00D93A0
:100EF0001C93ADE1B1E0AD90BD90ADEAB0E0AA0DBC
:100F0000BB1D8C9180938300A1E8B0E0AD90BB2421
:100F1000A5EAB0E0AA0DBB1D0D9111274FE050E0EE
:100F200004231523ADE1B1E00D931C93ADE1B1E0D5
:100F30000D911C91005F1F4FADE1B1E00D931C932B
:100F4000A0E7B0E00D911127ADE1B1E04D915C91CA
:100F5000040F151FADE1B1E00D931C93ADE1B1E0BD
:100F6000AD90BD90ADEAB0E0AA0DBB1D8C91809311
:100F700084000091840040918300040FA4E8B0E055
:100F80000C93A4E8B0E08C9180958C93A4E8B0E039
:100F90008C91ADE1B1E08D9388278C9391E0A4E82A
:100FA000B0E00E94940C97E0ADE1B1E00E94BC0C6F
:100FB0000091840040911D01042BA4E8B0E00C9343
:100FC00000918400A881B9814C91040FA4E8B0E09D
:100FD0000C93A4E8B0E08C91ADE1B1E08D9388274B
:100FE0008C9391E0A4E8B0E00E94940C97E0ADE10E
:100FF000B1E00E94BC0C0091840040911D01042BC3
:10100000A4E8B0E00C93A4E8B0E08C91ADE1B1E0CD
:101010008D9388278C9394E0A4E8B0E00E94B40CF0
:1010200094E0ADE1B1E00E949C0C009184004091FD
:101030001D01042BA4E8B0E00C93A1E8B0E08C9172
:101040008F5F8C93A1E8B0E08C9187708C93A1E8BE
:10105000B0E0AD90BB24A5EAB0E0AA0DBB1D0C9199
:10106000409184000427A1E8B0E0AD90BB24A5EA3C
:10107000B0E0AA0DBB1D0C93089580E080936B0037
:1010800080E08093FD0180E0809365000091650021
:10109000073018F011F00C945F0880E0A5E6B0E08E
:1010A000AD90BB24A5EAB0E0AA0DBB1D8C93A5E6CC
:1010B000B0E08C918F5F8C9310F40C94460880E024
:1010C00080936500009165000A3118F011F00C94CE
:1010D0008508A5E6B0E0AD90BB24A5E8B0E0AA0D78
:1010E000BB1D8C91D2018C9381E00E94840C0E94E4
:1010F000F008229681E00E94800CA5E6B0E08C9179
:101100008F5F8C9310F40C9462088BE180936500E0
:10111000009165000E3118F011F00C94D008809108
:10112000FD01D2018C9381E00E94840C0E94F008A2
:10113000229681E00E94800C8091FD01D2018C9367
:1011400081E00E94840C0E94F008229681E00E94B7
:10115000800CA5E6B0E0AD90BB24A5E8B0E0AA0DF8
:10116000BB1D8C918093FD01A5E6B0E0AD90BB2442
:10117000A5E8B0E0AA0DBB1D4C910091AC0004178E
:1011800011F40C94C808ABE6B0E08C9181608C93AC
:10119000A5E6B0E08C918F5F8C9310F40C948808D6
:1011A00080E080936500009165000F3318F011F026
:1011B0000C94EF088091A400D2018C9381E00E94EE
:1011C000840C0E94F008229681E00E94800CA5E623
:1011D000B0E08C918F5F8C9310F40C94D308089539
:1011E000A881B9818C918093010280E08093810075
:1011F00000918100043018F011F00C94CC09A1E8A2
:10120000B0E0AD90BB24A5EAB0E0AA0DBB1D0C91E7
:101210004FE30423A3E8B0E00C93A3E8B0E0AD9063
:10122000BB24A1E2B1E0AA0DBB1D0C91A3E8B0E084
:10123000AD90BB24A9EBB1E0AA0DBB1D4C910427D6
:10124000A3E8B0E00C930091010240918300040FE9
:10125000A4E8B0E00C9300918400A1E8B0E0AD9068
:10126000BB24A6EAB0E0AA0DBB1D4C91041BA4E868
:10127000B0E00C93A1E8B0E0AD90BB24A5EAB0E0EB
:10128000AA0DBB1D0C91A1E8B0E0AD90BB24A6EA6D
:10129000B0E0AA0DBB1D4C91041BA2E0B2E00C9380
:1012A00000910202409101020427A2E0B2E00C93F7
:1012B000A2E0B2E00D911127A4E8B0E04D915527CE
:1012C0000E948A0CAFEFB1E00D931C93AFEFB1E039
:1012D0000D911C914FEF50E004231523AFE1B1E0D5
:1012E0000D931C93A1E8B0E0AD90BB24A7EAB0E059
:1012F000AA0DBB1D0C9140911F010427A1E8B0E08D
:10130000AD90BB24A7EAB0E0AA0DBB1D0C93AFEFD4
:10131000B1E08D919C91AFE1B1E08D939C9398E009
:10132000AFE1B1E00E94BC0CA1E8B0E0AD90BB24FD
:10133000A8EAB0E0AA0DBB1D0C9140911F01040F5B
:10134000A1E8B0E0AD90BB24A8EAB0E0AA0DBB1DB7
:101350000C93809101028093FE0191E0A1E0B2E044
:101360000E94940C97E0AEEFB1E00E94B40C0091A3
:1013700001024091FE01042BA1E0B2E00C93A1E038
:10138000B2E08C91875B8C93A1E8B0E08C918E5F8A
:101390008C9310F40C94F808ABEAB0E00D9111278F
:1013A000ACEAB0E04D9155270E948A0CAFEFB1E056
:1013B0000D931C930091FF014FEF0423A1E0B2E0D5
:1013C0000C93009101024091A500040FA1E0B2E04E
:1013D0000C934091A50000910102041710F00C94A9
:1013E000F609A1E0B2E08C918F5F8C93009101022D
:1013F00049E3040FA5EAB0E00C9398E0AFEFB1E049
:101400000E94BC0C0091FF014091A600040FA1E0D6
:10141000B2E00C934091A60000910102041710F075
:101420000C94170AA1E0B2E08C918F5F8C9300912D
:1014300001024FE8040FA6EAB0E00C93089581EE94
:1014400080936800A6E6B0E08D919C91A9EFB1E091
:101450008D939C930E946A0C0E94CC0D81E08A932C
:1014600082E08A9388E08A9381E08A93A8E6B0E0DC
:10147000E7E386E0E8940E94190D00916B000030CC
:1014800011F00C94850A80E080936500009165005E
:10149000073018F011F00C94830AA5E6B0E0AD9087
:1014A000BB24A5EAB0E0AA0DBB1DBA93AA930E9483
:1014B00089032296A6E6B0E08D919C91A9EFB1E058
:1014C0008D939C930E946A0C0E94CC0D81E08A93BC
:1014D00082E08A9388E08A9381E08A93A5E6B0E06F
:1014E000AD90BB24A5EAB0E0AA0DBB1DE7E386E002
:1014F000E8940E94190DA5E6B0E08C918F5F8C9363
:1015000010F40C94460A0C94B50A80E080936500B0
:1015100000916500073018F011F00C94B50A8FEFB8
:1015200080936800A6E6B0E08D919C91A9EFB1E0B0
:101530008D939C930E946A0C0E94CC0D81E08A934B
:1015400082E08A9388E08A9381E08A93A8E6B0E0FB
:10155000E7E386E0E8940E94190DA5E6B0E08C91DF
:101560008F5F8C9310F40C94880A0E94010B0895ED
:1015700080E080936500A881B9814C91009165005D
:10158000041718F011F00C94F80A0E94D40BA8E686
:10159000B0E00E94D40C0C920E94D10BA8E6B0E0FF
:1015A000BA93AA930E9489032296A6E6B0E08D9191
:1015B0009C91A9EFB1E08D939C930E946A0C0E94CC
:1015C000CC0D81E08A9382E08A9388E08A9381E05F
:1015D0008A93A8E6B0E0E7E386E0E8940E94190D5C
:1015E000A5E6B0E08C918F5F8C9310F40C94BB0A4D
:1015F00000916F00053010F00C94000B0E94010B5D
:10160000089586EF80936800A6E6B0E08D919C91E6
:10161000A9EFB1E08D939C930E946A0C0E94CC0DBF
:1016200081E08A9382E08A9388E08A9381E08A93BA
:10163000A8E6B0E0E7E386E0E8940E94190D8FEF9A
:1016400080936800A6E6B0E08D919C91A9EFB1E08F
:101650008D939C930E946A0C0E94CC0D81E08A932A
:1016600082E08A9388E08A9381E08A93A8E6B0E0DA
:10167000E7E386E0E8940E94190D08953FFA1125EA
:10168000050001B0023B364D590280817C0000000C
:101690000000000000000000000000000000788E44
:1016A00017CE7B5AD52D9B0078800B7750DA859822
:1016B000DF00780000000000000000007AD8202041
:1016C0005441432D4D4F444520202048415645204C
:1016D00046554E203A297AD82020534B592D4D4F4C
:1016E0004445202020484156452046554E203A2961
:1016F0007AD820585445412D4D4F4445202020484C
:101700004156452046554E203A297AD820534B5908
:10171000392D4D4F444520202048415645204655FF
:101720004E203A297AD8214B4559555044415445C9
:1017300021202020202020202020202020207A80EE
:101740002020202020202020202020202020202099
:1017500020202020202020207AD85448495320439C
:1017600048414E4E454C20495320424C4F434B4537
:10177000442023232323232323232323232323231B
:1017800023232843294E454F37353330203230311B
:101790003923232323232323232323232323232303
:1017A00023238E2E9F2E0895E82DF92D0895ED9177
:1017B000FC91EF5FFF4FFC93EE93089505D00E94DC
:1017C0008A0C00FC0CD008950024E89457FF02C056
:1017D00009D0689400F80BD010F80124089502D0C5
:1017E00009D00895509540954F5F5F4F0895E89454
:1017F00017FF0895009510950F5F1F4F6894089587
:1018000000FC05D0089530D005D001F8F9CF37D0CD
:101810003FD00895842F952FA62FB72FE894452BFE
:10182000462B472B11F468940895402F512F622FB7
:10183000732F0027112722273327F0E2440F551F6B
:10184000661F771F001F111F221F331F081B190B54
:101850002A0B3B0B416028F4080F191F2A1F3B1F5E
:101860004E7FFA9559F708950024E89477FF02C057
:1018700006D0689400F809D010F80124089512D019
:101880004F5F5F4F6F4F7F4F0895E89437FF089584
:1018900000951095209530950F5F1F4F2F4F3F4FAC
:1018A0006894089540955095609570950895042723
:1018B00015272627372708950423152326233723A2
:1018C00008953197F1F70895689462F80895E894BF
:1018D00062F808958D9187FB16F48FEF01C0882779
:1018E0008D938C9308950D911D912D913C910895A8
:1018F0003C932E931E930E930895481A590A089507
:10190000481A8827580A089599275A924A92480EE9
:10191000591E08950F92B801469F8001479F100DF0
:10192000569F100D0F900895903029F08C91880FDC
:101930009A95E9F78C930895903041F00D911C91A0
:10194000000F111F9A95E1F71C930E9308959030A4
:1019500051F00E94730C000F111F221F331F9A9524
:10196000D1F70C94780C0895903029F08C918695DD
:101970009A95E9F78C930895903041F00D911C9160
:10198000169507959A95E1F71C930E93089590305C
:1019900051F00E94730C36952795179507959A95E7
:1019A000D1F70C94780C0895C895319600200895CD
:1019B00091E0882321F08894991F8A95E9F7892F6F
:1019C000909508950F938F9308E09927881F08F446
:1019D00093950A95D9F78F910F910895040F151FCC
:1019E000261F371F0895041B150B260B370B089570
:1019F000E199FECFEEBBFFBB3196089591E001C0A7
:101A000092E07B3751F47FB7F894F2DF8D918DBB74
:101A1000E29AE19A9A95C9F77FBF7727089591E0F6
:101A200001C092E0E5DFE09A8DB38D939A95D1F7EE
:101A30000895BEDFFF27008009220082E395008021
:101A400009220082082F692FEA9549918D9118810A
:101A50001730C1F41981103031F4806880952A81E3
:101A6000285F992726C0113049F40E94E20C90FDAE
:101A7000806880952A81275F99271BC0A3DF90FF8C
:101A80008068F7CF1981103029F480952A81275F6B
:101A900099270FC0113041F40E94E20C80952A81F1
:101AA000265F9095917005C08DDF80952A81265F15
:101AB0009170089416F028F401C018F00080002AF4
:101AC00003C000800622000000825BD05AD09695A9
:101AD00087952A9579F74A9509F0B8CF239651D082
:101AE000089566DFFF27008009220082E3950080C9
:101AF000092200823297082F692F4991342F1881CB
:101B0000173049F41981103019F42A81295F0BC06C
:101B10002A81285F08C01981103019F42A81285FB2
:101B200002C02A81275F522F0080002216F019F090
:101B3000FBCF09F4F9CF25D024D023D0889400809E
:101B4000002209F008942A9519F087959795F4CF0B
:101B50005A3028F05950991F881F5A95E1F70EF412
:101B600080951881173009F48F778D93303031F4D8
:101B70008D3029F688278C93239608954A95E1F3B2
:101B8000BECF8F939F938091F9019091FA010197B5
:101B9000F1F79F918F91089500E519E726E330E072
:101BA000A9EFB1E04D915D916D917C910E94030C84
:101BB000A9EFB1E04D935D936D937D93A9EFB1E0F3
:101BC0000D911D912D913C914AE250E060E070E052
:101BD0000E94F30CA9EFB1E00D931D932D933D935B
:101BE000A9EFB1E00D911D912D913C9148E050E09D
:101BF00060E070E00E94030CA9EFB1E04D935D93AB
:061C00006D937D93089531
:00000001FF
